{
	"nftstaking.sol": {
		"StakeFroggies": {
			"abi": [
				{
					"inputs": [
						{
							"internalType": "address",
							"name": "_froggyAddress",
							"type": "address"
						}
					],
					"stateMutability": "nonpayable",
					"type": "constructor"
				},
				{
					"anonymous": false,
					"inputs": [
						{
							"indexed": true,
							"internalType": "address",
							"name": "previousOwner",
							"type": "address"
						},
						{
							"indexed": true,
							"internalType": "address",
							"name": "newOwner",
							"type": "address"
						}
					],
					"name": "OwnershipTransferred",
					"type": "event"
				},
				{
					"inputs": [],
					"name": "froggyAddress",
					"outputs": [
						{
							"internalType": "address",
							"name": "",
							"type": "address"
						}
					],
					"stateMutability": "view",
					"type": "function"
				},
				{
					"inputs": [
						{
							"internalType": "address",
							"name": "",
							"type": "address"
						},
						{
							"internalType": "address",
							"name": "",
							"type": "address"
						},
						{
							"internalType": "uint256",
							"name": "",
							"type": "uint256"
						},
						{
							"internalType": "bytes",
							"name": "",
							"type": "bytes"
						}
					],
					"name": "onERC721Received",
					"outputs": [
						{
							"internalType": "bytes4",
							"name": "",
							"type": "bytes4"
						}
					],
					"stateMutability": "pure",
					"type": "function"
				},
				{
					"inputs": [],
					"name": "owner",
					"outputs": [
						{
							"internalType": "address",
							"name": "",
							"type": "address"
						}
					],
					"stateMutability": "view",
					"type": "function"
				},
				{
					"inputs": [],
					"name": "renounceOwnership",
					"outputs": [],
					"stateMutability": "nonpayable",
					"type": "function"
				},
				{
					"inputs": [],
					"name": "ribbitAddress",
					"outputs": [
						{
							"internalType": "address",
							"name": "",
							"type": "address"
						}
					],
					"stateMutability": "view",
					"type": "function"
				},
				{
					"inputs": [],
					"name": "root",
					"outputs": [
						{
							"internalType": "bytes32",
							"name": "",
							"type": "bytes32"
						}
					],
					"stateMutability": "view",
					"type": "function"
				},
				{
					"inputs": [
						{
							"internalType": "address",
							"name": "newOwner",
							"type": "address"
						}
					],
					"name": "transferOwnership",
					"outputs": [],
					"stateMutability": "nonpayable",
					"type": "function"
				}
			],
			"devdoc": {
				"kind": "dev",
				"methods": {
					"owner()": {
						"details": "Returns the address of the current owner."
					},
					"renounceOwnership()": {
						"details": "Leaves the contract without owner. It will not be possible to call `onlyOwner` functions anymore. Can only be called by the current owner. NOTE: Renouncing ownership will leave the contract without an owner, thereby removing any functionality that is only available to the owner."
					},
					"transferOwnership(address)": {
						"details": "Transfers ownership of the contract to a new account (`newOwner`). Can only be called by the current owner."
					}
				},
				"version": 1
			},
			"evm": {
				"assembly": "    /* \"nftstaking.sol\":427:493  0x255cb0514f90311a9f0e5de5cda68aa703990d05a93de1bc888d351eb52a99f3 */\n  0x255cb0514f90311a9f0e5de5cda68aa703990d05a93de1bc888d351eb52a99f3\n    /* \"nftstaking.sol\":407:493  bytes32 public root=0x255cb0514f90311a9f0e5de5cda68aa703990d05a93de1bc888d351eb52a99f3 */\n  0x03\n  sstore\n    /* \"nftstaking.sol\":500:525  uint[] rewardtier=[20,30] */\n  0xc0\n    /* \"nftstaking.sol\":277:1070  contract StakeFroggies is IERC721Receiver, Ownable {... */\n  0x40\n    /* \"nftstaking.sol\":500:525  uint[] rewardtier=[20,30] */\n  mstore\n    /* \"nftstaking.sol\":519:521  20 */\n  0x14\n    /* \"nftstaking.sol\":277:1070  contract StakeFroggies is IERC721Receiver, Ownable {... */\n  0x80\n    /* \"nftstaking.sol\":500:525  uint[] rewardtier=[20,30] */\n  swap1\n  dup2\n  mstore\n    /* \"nftstaking.sol\":522:524  30 */\n  0x1e\n    /* \"nftstaking.sol\":500:525  uint[] rewardtier=[20,30] */\n  0xa0\n  mstore\n  tag_1\n  swap1\n  0x04\n  swap1\n  0x02\n  tag_2\n  jump\t// in\ntag_1:\n  pop\n    /* \"nftstaking.sol\":539:624  constructor(address _froggyAddress) {... */\n  callvalue\n  dup1\n  iszero\n  tag_3\n  jumpi\n  0x00\n  dup1\n  revert\ntag_3:\n  pop\n  mload(0x40)\n  sub(codesize, bytecodeSize)\n  dup1\n  bytecodeSize\n  dup4\n  codecopy\n  dup2\n  add\n  0x40\n  dup2\n  swap1\n  mstore\n  tag_4\n  swap2\n  tag_5\n  jump\t// in\ntag_4:\n    /* \"@openzeppelin/contracts/access/Ownable.sol\":921:953  _transferOwnership(_msgSender()) */\n  tag_9\n    /* \"@openzeppelin/contracts/utils/Context.sol\":719:729  msg.sender */\n  caller\n    /* \"@openzeppelin/contracts/access/Ownable.sol\":921:939  _transferOwnership */\n  tag_12\n    /* \"@openzeppelin/contracts/access/Ownable.sol\":921:953  _transferOwnership(_msgSender()) */\n  jump\t// in\ntag_9:\n    /* \"nftstaking.sol\":586:599  froggyAddress */\n  0x01\n    /* \"nftstaking.sol\":586:616  froggyAddress = _froggyAddress */\n  dup1\n  sload\n  not(sub(shl(0xa0, 0x01), 0x01))\n  and\n  sub(shl(0xa0, 0x01), 0x01)\n  swap3\n  swap1\n  swap3\n  and\n  swap2\n  swap1\n  swap2\n  or\n  swap1\n  sstore\n    /* \"nftstaking.sol\":277:1070  contract StakeFroggies is IERC721Receiver, Ownable {... */\n  jump(tag_24)\n    /* \"@openzeppelin/contracts/access/Ownable.sol\":2270:2457  function _transferOwnership(address newOwner) internal virtual {... */\ntag_12:\n    /* \"@openzeppelin/contracts/access/Ownable.sol\":2343:2359  address oldOwner */\n  0x00\n    /* \"@openzeppelin/contracts/access/Ownable.sol\":2362:2368  _owner */\n  dup1\n  sload\n  sub(shl(0xa0, 0x01), 0x01)\n    /* \"@openzeppelin/contracts/access/Ownable.sol\":2378:2395  _owner = newOwner */\n  dup4\n  dup2\n  and\n  not(sub(shl(0xa0, 0x01), 0x01))\n  dup4\n  and\n  dup2\n  or\n  dup5\n  sstore\n    /* \"@openzeppelin/contracts/access/Ownable.sol\":2410:2450  OwnershipTransferred(oldOwner, newOwner) */\n  mload(0x40)\n    /* \"@openzeppelin/contracts/access/Ownable.sol\":2362:2368  _owner */\n  swap2\n  swap1\n  swap3\n  and\n  swap3\n  dup4\n  swap2\n    /* \"@openzeppelin/contracts/access/Ownable.sol\":2410:2450  OwnershipTransferred(oldOwner, newOwner) */\n  0x8be0079c531659141344cd1fd0a4f28419497f9722a3daafe3b4186f6b6457e0\n  swap2\n    /* \"@openzeppelin/contracts/access/Ownable.sol\":2343:2359  address oldOwner */\n  swap1\n    /* \"@openzeppelin/contracts/access/Ownable.sol\":2410:2450  OwnershipTransferred(oldOwner, newOwner) */\n  log3\n    /* \"@openzeppelin/contracts/access/Ownable.sol\":2333:2457  {... */\n  pop\n    /* \"@openzeppelin/contracts/access/Ownable.sol\":2270:2457  function _transferOwnership(address newOwner) internal virtual {... */\n  pop\n  jump\t// out\n    /* \"nftstaking.sol\":277:1070  contract StakeFroggies is IERC721Receiver, Ownable {... */\ntag_2:\n  dup3\n  dup1\n  sload\n  dup3\n  dup3\n  sstore\n  swap1\n  0x00\n  mstore\n  keccak256(0x00, 0x20)\n  swap1\n  dup2\n  add\n  swap3\n  dup3\n  iszero\n  tag_19\n  jumpi\n  swap2\n  0x20\n  mul\n  dup3\n  add\ntag_18:\n  dup3\n  dup2\n  gt\n  iszero\n  tag_19\n  jumpi\n  dup3\n  mload\n  dup3\n  swap1\n  0xff\n  and\n  swap1\n  sstore\n  swap2\n  0x20\n  add\n  swap2\n  swap1\n  0x01\n  add\n  swap1\n  jump(tag_18)\ntag_19:\n  pop\n  tag_20\n  swap3\n  swap2\n  pop\n  tag_21\n  jump\t// in\ntag_20:\n  pop\n  swap1\n  jump\t// out\ntag_21:\ntag_22:\n  dup1\n  dup3\n  gt\n  iszero\n  tag_20\n  jumpi\n  0x00\n  dup2\n  sstore\n  0x01\n  add\n  jump(tag_22)\n    /* \"#utility.yul\":14:304   */\ntag_5:\n    /* \"#utility.yul\":84:90   */\n  0x00\n    /* \"#utility.yul\":137:139   */\n  0x20\n    /* \"#utility.yul\":125:134   */\n  dup3\n    /* \"#utility.yul\":116:123   */\n  dup5\n    /* \"#utility.yul\":112:135   */\n  sub\n    /* \"#utility.yul\":108:140   */\n  slt\n    /* \"#utility.yul\":105:157   */\n  iszero\n  tag_26\n  jumpi\n    /* \"#utility.yul\":153:154   */\n  0x00\n    /* \"#utility.yul\":150:151   */\n  dup1\n    /* \"#utility.yul\":143:155   */\n  revert\n    /* \"#utility.yul\":105:157   */\ntag_26:\n    /* \"#utility.yul\":179:195   */\n  dup2\n  mload\n  sub(shl(0xa0, 0x01), 0x01)\n    /* \"#utility.yul\":224:255   */\n  dup2\n  and\n    /* \"#utility.yul\":214:256   */\n  dup2\n  eq\n    /* \"#utility.yul\":204:274   */\n  tag_27\n  jumpi\n    /* \"#utility.yul\":270:271   */\n  0x00\n    /* \"#utility.yul\":267:268   */\n  dup1\n    /* \"#utility.yul\":260:272   */\n  revert\n    /* \"#utility.yul\":204:274   */\ntag_27:\n    /* \"#utility.yul\":293:298   */\n  swap4\n    /* \"#utility.yul\":14:304   */\n  swap3\n  pop\n  pop\n  pop\n  jump\t// out\ntag_24:\n    /* \"nftstaking.sol\":277:1070  contract StakeFroggies is IERC721Receiver, Ownable {... */\n  dataSize(sub_0)\n  dup1\n  dataOffset(sub_0)\n  0x00\n  codecopy\n  0x00\n  return\nstop\n\nsub_0: assembly {\n        /* \"nftstaking.sol\":277:1070  contract StakeFroggies is IERC721Receiver, Ownable {... */\n      mstore(0x40, 0x80)\n      callvalue\n      dup1\n      iszero\n      tag_1\n      jumpi\n      0x00\n      dup1\n      revert\n    tag_1:\n      pop\n      jumpi(tag_2, lt(calldatasize, 0x04))\n      shr(0xe0, calldataload(0x00))\n      dup1\n      0x8da5cb5b\n      gt\n      tag_10\n      jumpi\n      dup1\n      0x8da5cb5b\n      eq\n      tag_6\n      jumpi\n      dup1\n      0xb37f96e4\n      eq\n      tag_7\n      jumpi\n      dup1\n      0xebf0c717\n      eq\n      tag_8\n      jumpi\n      dup1\n      0xf2fde38b\n      eq\n      tag_9\n      jumpi\n      0x00\n      dup1\n      revert\n    tag_10:\n      dup1\n      0x150b7a02\n      eq\n      tag_3\n      jumpi\n      dup1\n      0x4fc8479a\n      eq\n      tag_4\n      jumpi\n      dup1\n      0x715018a6\n      eq\n      tag_5\n      jumpi\n    tag_2:\n      0x00\n      dup1\n      revert\n        /* \"nftstaking.sol\":848:1067  function onERC721Received(... */\n    tag_3:\n      tag_11\n      tag_12\n      calldatasize\n      0x04\n      tag_13\n      jump\t// in\n    tag_12:\n      shl(0xe1, 0x0a85bd01)\n      swap6\n      swap5\n      pop\n      pop\n      pop\n      pop\n      pop\n      jump\n    tag_11:\n      mload(0x40)\n      not(sub(shl(0xe0, 0x01), 0x01))\n        /* \"#utility.yul\":1167:1200   */\n      swap1\n      swap2\n      and\n        /* \"#utility.yul\":1149:1201   */\n      dup2\n      mstore\n        /* \"#utility.yul\":1137:1139   */\n      0x20\n        /* \"#utility.yul\":1122:1140   */\n      add\n        /* \"nftstaking.sol\":848:1067  function onERC721Received(... */\n    tag_15:\n      mload(0x40)\n      dup1\n      swap2\n      sub\n      swap1\n      return\n        /* \"nftstaking.sol\":337:365  address public froggyAddress */\n    tag_4:\n      sload(0x01)\n      tag_17\n      swap1\n      sub(shl(0xa0, 0x01), 0x01)\n      and\n      dup2\n      jump\n    tag_17:\n      mload(0x40)\n      sub(shl(0xa0, 0x01), 0x01)\n        /* \"#utility.yul\":1376:1408   */\n      swap1\n      swap2\n      and\n        /* \"#utility.yul\":1358:1409   */\n      dup2\n      mstore\n        /* \"#utility.yul\":1346:1348   */\n      0x20\n        /* \"#utility.yul\":1331:1349   */\n      add\n        /* \"nftstaking.sol\":337:365  address public froggyAddress */\n      tag_15\n        /* \"#utility.yul\":1212:1415   */\n      jump\n        /* \"@openzeppelin/contracts/access/Ownable.sol\":1668:1769  function renounceOwnership() public virtual onlyOwner {... */\n    tag_5:\n      tag_21\n      tag_22\n      jump\t// in\n    tag_21:\n      stop\n        /* \"@openzeppelin/contracts/access/Ownable.sol\":1036:1121  function owner() public view virtual returns (address) {... */\n    tag_6:\n        /* \"@openzeppelin/contracts/access/Ownable.sol\":1082:1089  address */\n      0x00\n        /* \"@openzeppelin/contracts/access/Ownable.sol\":1108:1114  _owner */\n      sload\n      sub(shl(0xa0, 0x01), 0x01)\n      and\n        /* \"@openzeppelin/contracts/access/Ownable.sol\":1036:1121  function owner() public view virtual returns (address) {... */\n      jump(tag_17)\n        /* \"nftstaking.sol\":372:400  address public ribbitAddress */\n    tag_7:\n      sload(0x02)\n      tag_17\n      swap1\n      sub(shl(0xa0, 0x01), 0x01)\n      and\n      dup2\n      jump\n        /* \"nftstaking.sol\":407:493  bytes32 public root=0x255cb0514f90311a9f0e5de5cda68aa703990d05a93de1bc888d351eb52a99f3 */\n    tag_8:\n      tag_29\n      sload(0x03)\n      dup2\n      jump\n    tag_29:\n      mload(0x40)\n        /* \"#utility.yul\":1566:1591   */\n      swap1\n      dup2\n      mstore\n        /* \"#utility.yul\":1554:1556   */\n      0x20\n        /* \"#utility.yul\":1539:1557   */\n      add\n        /* \"nftstaking.sol\":407:493  bytes32 public root=0x255cb0514f90311a9f0e5de5cda68aa703990d05a93de1bc888d351eb52a99f3 */\n      tag_15\n        /* \"#utility.yul\":1420:1597   */\n      jump\n        /* \"@openzeppelin/contracts/access/Ownable.sol\":1918:2116  function transferOwnership(address newOwner) public virtual onlyOwner {... */\n    tag_9:\n      tag_21\n      tag_34\n      calldatasize\n      0x04\n      tag_35\n      jump\t// in\n    tag_34:\n      tag_36\n      jump\t// in\n        /* \"@openzeppelin/contracts/access/Ownable.sol\":1668:1769  function renounceOwnership() public virtual onlyOwner {... */\n    tag_22:\n        /* \"@openzeppelin/contracts/access/Ownable.sol\":1082:1089  address */\n      0x00\n        /* \"@openzeppelin/contracts/access/Ownable.sol\":1108:1114  _owner */\n      sload\n      sub(shl(0xa0, 0x01), 0x01)\n      and\n        /* \"@openzeppelin/contracts/utils/Context.sol\":719:729  msg.sender */\n      caller\n        /* \"@openzeppelin/contracts/access/Ownable.sol\":1248:1271  owner() == _msgSender() */\n      eq\n        /* \"@openzeppelin/contracts/access/Ownable.sol\":1240:1308  require(owner() == _msgSender(), \"Ownable: caller is not the owner\") */\n      tag_42\n      jumpi\n      mload(0x40)\n      shl(0xe5, 0x461bcd)\n      dup2\n      mstore\n        /* \"#utility.yul\":1995:1997   */\n      0x20\n        /* \"@openzeppelin/contracts/access/Ownable.sol\":1240:1308  require(owner() == _msgSender(), \"Ownable: caller is not the owner\") */\n      0x04\n      dup3\n      add\n        /* \"#utility.yul\":1977:1998   */\n      dup2\n      swap1\n      mstore\n        /* \"#utility.yul\":2014:2032   */\n      0x24\n      dup3\n      add\n        /* \"#utility.yul\":2007:2037   */\n      mstore\n        /* \"#utility.yul\":2073:2107   */\n      0x4f776e61626c653a2063616c6c6572206973206e6f7420746865206f776e6572\n        /* \"#utility.yul\":2053:2071   */\n      0x44\n      dup3\n      add\n        /* \"#utility.yul\":2046:2108   */\n      mstore\n        /* \"#utility.yul\":2125:2143   */\n      0x64\n      add\n        /* \"@openzeppelin/contracts/access/Ownable.sol\":1240:1308  require(owner() == _msgSender(), \"Ownable: caller is not the owner\") */\n    tag_43:\n      mload(0x40)\n      dup1\n      swap2\n      sub\n      swap1\n      revert\n    tag_42:\n        /* \"@openzeppelin/contracts/access/Ownable.sol\":1732:1762  _transferOwnership(address(0)) */\n      tag_46\n        /* \"@openzeppelin/contracts/access/Ownable.sol\":1759:1760  0 */\n      0x00\n        /* \"@openzeppelin/contracts/access/Ownable.sol\":1732:1750  _transferOwnership */\n      tag_47\n        /* \"@openzeppelin/contracts/access/Ownable.sol\":1732:1762  _transferOwnership(address(0)) */\n      jump\t// in\n    tag_46:\n        /* \"@openzeppelin/contracts/access/Ownable.sol\":1668:1769  function renounceOwnership() public virtual onlyOwner {... */\n      jump\t// out\n        /* \"@openzeppelin/contracts/access/Ownable.sol\":1918:2116  function transferOwnership(address newOwner) public virtual onlyOwner {... */\n    tag_36:\n        /* \"@openzeppelin/contracts/access/Ownable.sol\":1082:1089  address */\n      0x00\n        /* \"@openzeppelin/contracts/access/Ownable.sol\":1108:1114  _owner */\n      sload\n      sub(shl(0xa0, 0x01), 0x01)\n      and\n        /* \"@openzeppelin/contracts/utils/Context.sol\":719:729  msg.sender */\n      caller\n        /* \"@openzeppelin/contracts/access/Ownable.sol\":1248:1271  owner() == _msgSender() */\n      eq\n        /* \"@openzeppelin/contracts/access/Ownable.sol\":1240:1308  require(owner() == _msgSender(), \"Ownable: caller is not the owner\") */\n      tag_52\n      jumpi\n      mload(0x40)\n      shl(0xe5, 0x461bcd)\n      dup2\n      mstore\n        /* \"#utility.yul\":1995:1997   */\n      0x20\n        /* \"@openzeppelin/contracts/access/Ownable.sol\":1240:1308  require(owner() == _msgSender(), \"Ownable: caller is not the owner\") */\n      0x04\n      dup3\n      add\n        /* \"#utility.yul\":1977:1998   */\n      dup2\n      swap1\n      mstore\n        /* \"#utility.yul\":2014:2032   */\n      0x24\n      dup3\n      add\n        /* \"#utility.yul\":2007:2037   */\n      mstore\n        /* \"#utility.yul\":2073:2107   */\n      0x4f776e61626c653a2063616c6c6572206973206e6f7420746865206f776e6572\n        /* \"#utility.yul\":2053:2071   */\n      0x44\n      dup3\n      add\n        /* \"#utility.yul\":2046:2108   */\n      mstore\n        /* \"#utility.yul\":2125:2143   */\n      0x64\n      add\n        /* \"@openzeppelin/contracts/access/Ownable.sol\":1240:1308  require(owner() == _msgSender(), \"Ownable: caller is not the owner\") */\n      tag_43\n        /* \"#utility.yul\":1793:2149   */\n      jump\n        /* \"@openzeppelin/contracts/access/Ownable.sol\":1240:1308  require(owner() == _msgSender(), \"Ownable: caller is not the owner\") */\n    tag_52:\n      sub(shl(0xa0, 0x01), 0x01)\n        /* \"@openzeppelin/contracts/access/Ownable.sol\":2006:2028  newOwner != address(0) */\n      dup2\n      and\n        /* \"@openzeppelin/contracts/access/Ownable.sol\":1998:2071  require(newOwner != address(0), \"Ownable: new owner is the zero address\") */\n      tag_55\n      jumpi\n      mload(0x40)\n      shl(0xe5, 0x461bcd)\n      dup2\n      mstore\n        /* \"#utility.yul\":2356:2358   */\n      0x20\n        /* \"@openzeppelin/contracts/access/Ownable.sol\":1998:2071  require(newOwner != address(0), \"Ownable: new owner is the zero address\") */\n      0x04\n      dup3\n      add\n        /* \"#utility.yul\":2338:2359   */\n      mstore\n        /* \"#utility.yul\":2395:2397   */\n      0x26\n        /* \"#utility.yul\":2375:2393   */\n      0x24\n      dup3\n      add\n        /* \"#utility.yul\":2368:2398   */\n      mstore\n        /* \"#utility.yul\":2434:2468   */\n      0x4f776e61626c653a206e6577206f776e657220697320746865207a65726f2061\n        /* \"#utility.yul\":2414:2432   */\n      0x44\n      dup3\n      add\n        /* \"#utility.yul\":2407:2469   */\n      mstore\n      shl(0xd0, 0x646472657373)\n        /* \"#utility.yul\":2485:2503   */\n      0x64\n      dup3\n      add\n        /* \"#utility.yul\":2478:2514   */\n      mstore\n        /* \"#utility.yul\":2531:2550   */\n      0x84\n      add\n        /* \"@openzeppelin/contracts/access/Ownable.sol\":1998:2071  require(newOwner != address(0), \"Ownable: new owner is the zero address\") */\n      tag_43\n        /* \"#utility.yul\":2154:2556   */\n      jump\n        /* \"@openzeppelin/contracts/access/Ownable.sol\":1998:2071  require(newOwner != address(0), \"Ownable: new owner is the zero address\") */\n    tag_55:\n        /* \"@openzeppelin/contracts/access/Ownable.sol\":2081:2109  _transferOwnership(newOwner) */\n      tag_58\n        /* \"@openzeppelin/contracts/access/Ownable.sol\":2100:2108  newOwner */\n      dup2\n        /* \"@openzeppelin/contracts/access/Ownable.sol\":2081:2099  _transferOwnership */\n      tag_47\n        /* \"@openzeppelin/contracts/access/Ownable.sol\":2081:2109  _transferOwnership(newOwner) */\n      jump\t// in\n    tag_58:\n        /* \"@openzeppelin/contracts/access/Ownable.sol\":1918:2116  function transferOwnership(address newOwner) public virtual onlyOwner {... */\n      pop\n      jump\t// out\n        /* \"@openzeppelin/contracts/access/Ownable.sol\":2270:2457  function _transferOwnership(address newOwner) internal virtual {... */\n    tag_47:\n        /* \"@openzeppelin/contracts/access/Ownable.sol\":2343:2359  address oldOwner */\n      0x00\n        /* \"@openzeppelin/contracts/access/Ownable.sol\":2362:2368  _owner */\n      dup1\n      sload\n      sub(shl(0xa0, 0x01), 0x01)\n        /* \"@openzeppelin/contracts/access/Ownable.sol\":2378:2395  _owner = newOwner */\n      dup4\n      dup2\n      and\n      not(sub(shl(0xa0, 0x01), 0x01))\n      dup4\n      and\n      dup2\n      or\n      dup5\n      sstore\n        /* \"@openzeppelin/contracts/access/Ownable.sol\":2410:2450  OwnershipTransferred(oldOwner, newOwner) */\n      mload(0x40)\n        /* \"@openzeppelin/contracts/access/Ownable.sol\":2362:2368  _owner */\n      swap2\n      swap1\n      swap3\n      and\n      swap3\n      dup4\n      swap2\n        /* \"@openzeppelin/contracts/access/Ownable.sol\":2410:2450  OwnershipTransferred(oldOwner, newOwner) */\n      0x8be0079c531659141344cd1fd0a4f28419497f9722a3daafe3b4186f6b6457e0\n      swap2\n        /* \"@openzeppelin/contracts/access/Ownable.sol\":2343:2359  address oldOwner */\n      swap1\n        /* \"@openzeppelin/contracts/access/Ownable.sol\":2410:2450  OwnershipTransferred(oldOwner, newOwner) */\n      log3\n        /* \"@openzeppelin/contracts/access/Ownable.sol\":2333:2457  {... */\n      pop\n        /* \"@openzeppelin/contracts/access/Ownable.sol\":2270:2457  function _transferOwnership(address newOwner) internal virtual {... */\n      pop\n      jump\t// out\n        /* \"#utility.yul\":14:187   */\n    tag_61:\n        /* \"#utility.yul\":82:102   */\n      dup1\n      calldataload\n      sub(shl(0xa0, 0x01), 0x01)\n        /* \"#utility.yul\":131:162   */\n      dup2\n      and\n        /* \"#utility.yul\":121:163   */\n      dup2\n      eq\n        /* \"#utility.yul\":111:181   */\n      tag_64\n      jumpi\n        /* \"#utility.yul\":177:178   */\n      0x00\n        /* \"#utility.yul\":174:175   */\n      dup1\n        /* \"#utility.yul\":167:179   */\n      revert\n        /* \"#utility.yul\":111:181   */\n    tag_64:\n        /* \"#utility.yul\":14:187   */\n      swap2\n      swap1\n      pop\n      jump\t// out\n        /* \"#utility.yul\":192:1000   */\n    tag_13:\n        /* \"#utility.yul\":289:295   */\n      0x00\n        /* \"#utility.yul\":297:303   */\n      dup1\n        /* \"#utility.yul\":305:311   */\n      0x00\n        /* \"#utility.yul\":313:319   */\n      dup1\n        /* \"#utility.yul\":321:327   */\n      0x00\n        /* \"#utility.yul\":374:377   */\n      0x80\n        /* \"#utility.yul\":362:371   */\n      dup7\n        /* \"#utility.yul\":353:360   */\n      dup9\n        /* \"#utility.yul\":349:372   */\n      sub\n        /* \"#utility.yul\":345:378   */\n      slt\n        /* \"#utility.yul\":342:395   */\n      iszero\n      tag_66\n      jumpi\n        /* \"#utility.yul\":391:392   */\n      0x00\n        /* \"#utility.yul\":388:389   */\n      dup1\n        /* \"#utility.yul\":381:393   */\n      revert\n        /* \"#utility.yul\":342:395   */\n    tag_66:\n        /* \"#utility.yul\":414:443   */\n      tag_67\n        /* \"#utility.yul\":433:442   */\n      dup7\n        /* \"#utility.yul\":414:443   */\n      tag_61\n      jump\t// in\n    tag_67:\n        /* \"#utility.yul\":404:443   */\n      swap5\n      pop\n        /* \"#utility.yul\":462:500   */\n      tag_68\n        /* \"#utility.yul\":496:498   */\n      0x20\n        /* \"#utility.yul\":485:494   */\n      dup8\n        /* \"#utility.yul\":481:499   */\n      add\n        /* \"#utility.yul\":462:500   */\n      tag_61\n      jump\t// in\n    tag_68:\n        /* \"#utility.yul\":452:500   */\n      swap4\n      pop\n        /* \"#utility.yul\":547:549   */\n      0x40\n        /* \"#utility.yul\":536:545   */\n      dup7\n        /* \"#utility.yul\":532:550   */\n      add\n        /* \"#utility.yul\":519:551   */\n      calldataload\n        /* \"#utility.yul\":509:551   */\n      swap3\n      pop\n        /* \"#utility.yul\":602:604   */\n      0x60\n        /* \"#utility.yul\":591:600   */\n      dup7\n        /* \"#utility.yul\":587:605   */\n      add\n        /* \"#utility.yul\":574:606   */\n      calldataload\n        /* \"#utility.yul\":625:643   */\n      0xffffffffffffffff\n        /* \"#utility.yul\":666:668   */\n      dup1\n        /* \"#utility.yul\":658:664   */\n      dup3\n        /* \"#utility.yul\":655:669   */\n      gt\n        /* \"#utility.yul\":652:686   */\n      iszero\n      tag_69\n      jumpi\n        /* \"#utility.yul\":682:683   */\n      0x00\n        /* \"#utility.yul\":679:680   */\n      dup1\n        /* \"#utility.yul\":672:684   */\n      revert\n        /* \"#utility.yul\":652:686   */\n    tag_69:\n        /* \"#utility.yul\":720:726   */\n      dup2\n        /* \"#utility.yul\":709:718   */\n      dup9\n        /* \"#utility.yul\":705:727   */\n      add\n        /* \"#utility.yul\":695:727   */\n      swap2\n      pop\n        /* \"#utility.yul\":765:772   */\n      dup9\n        /* \"#utility.yul\":758:762   */\n      0x1f\n        /* \"#utility.yul\":754:756   */\n      dup4\n        /* \"#utility.yul\":750:763   */\n      add\n        /* \"#utility.yul\":746:773   */\n      slt\n        /* \"#utility.yul\":736:791   */\n      tag_70\n      jumpi\n        /* \"#utility.yul\":787:788   */\n      0x00\n        /* \"#utility.yul\":784:785   */\n      dup1\n        /* \"#utility.yul\":777:789   */\n      revert\n        /* \"#utility.yul\":736:791   */\n    tag_70:\n        /* \"#utility.yul\":827:829   */\n      dup2\n        /* \"#utility.yul\":814:830   */\n      calldataload\n        /* \"#utility.yul\":853:855   */\n      dup2\n        /* \"#utility.yul\":845:851   */\n      dup2\n        /* \"#utility.yul\":842:856   */\n      gt\n        /* \"#utility.yul\":839:873   */\n      iszero\n      tag_71\n      jumpi\n        /* \"#utility.yul\":869:870   */\n      0x00\n        /* \"#utility.yul\":866:867   */\n      dup1\n        /* \"#utility.yul\":859:871   */\n      revert\n        /* \"#utility.yul\":839:873   */\n    tag_71:\n        /* \"#utility.yul\":914:921   */\n      dup10\n        /* \"#utility.yul\":909:911   */\n      0x20\n        /* \"#utility.yul\":900:906   */\n      dup3\n        /* \"#utility.yul\":896:898   */\n      dup6\n        /* \"#utility.yul\":892:907   */\n      add\n        /* \"#utility.yul\":888:912   */\n      add\n        /* \"#utility.yul\":885:922   */\n      gt\n        /* \"#utility.yul\":882:939   */\n      iszero\n      tag_72\n      jumpi\n        /* \"#utility.yul\":935:936   */\n      0x00\n        /* \"#utility.yul\":932:933   */\n      dup1\n        /* \"#utility.yul\":925:937   */\n      revert\n        /* \"#utility.yul\":882:939   */\n    tag_72:\n        /* \"#utility.yul\":192:1000   */\n      swap7\n      swap10\n      swap6\n      swap9\n      pop\n      swap4\n      swap7\n      pop\n        /* \"#utility.yul\":966:968   */\n      0x20\n        /* \"#utility.yul\":958:969   */\n      add\n      swap5\n        /* \"#utility.yul\":988:994   */\n      swap4\n        /* \"#utility.yul\":192:1000   */\n      swap3\n      pop\n      pop\n      pop\n      jump\t// out\n        /* \"#utility.yul\":1602:1788   */\n    tag_35:\n        /* \"#utility.yul\":1661:1667   */\n      0x00\n        /* \"#utility.yul\":1714:1716   */\n      0x20\n        /* \"#utility.yul\":1702:1711   */\n      dup3\n        /* \"#utility.yul\":1693:1700   */\n      dup5\n        /* \"#utility.yul\":1689:1712   */\n      sub\n        /* \"#utility.yul\":1685:1717   */\n      slt\n        /* \"#utility.yul\":1682:1734   */\n      iszero\n      tag_77\n      jumpi\n        /* \"#utility.yul\":1730:1731   */\n      0x00\n        /* \"#utility.yul\":1727:1728   */\n      dup1\n        /* \"#utility.yul\":1720:1732   */\n      revert\n        /* \"#utility.yul\":1682:1734   */\n    tag_77:\n        /* \"#utility.yul\":1753:1782   */\n      tag_78\n        /* \"#utility.yul\":1772:1781   */\n      dup3\n        /* \"#utility.yul\":1753:1782   */\n      tag_61\n      jump\t// in\n    tag_78:\n        /* \"#utility.yul\":1743:1782   */\n      swap4\n        /* \"#utility.yul\":1602:1788   */\n      swap3\n      pop\n      pop\n      pop\n      jump\t// out\n\n    auxdata: 0xa264697066735822122007d33a466ad66a001e8f1578a86e73e9b70bcf789aa09ea0e57ce502795cbb9364736f6c634300080d0033\n}\n",
				"bytecode": {
					"linkReferences": {},
					"object": "7f255cb0514f90311a9f0e5de5cda68aa703990d05a93de1bc888d351eb52a99f360035560c060405260146080908152601e60a0526100429060049060026100ec565b5034801561004f57600080fd5b5060405161056738038061056783398101604081905261006e91610151565b6100773361009c565b600180546001600160a01b0319166001600160a01b0392909216919091179055610181565b600080546001600160a01b038381166001600160a01b0319831681178455604051919092169283917f8be0079c531659141344cd1fd0a4f28419497f9722a3daafe3b4186f6b6457e09190a35050565b82805482825590600052602060002090810192821561012c579160200282015b8281111561012c578251829060ff1690559160200191906001019061010c565b5061013892915061013c565b5090565b5b80821115610138576000815560010161013d565b60006020828403121561016357600080fd5b81516001600160a01b038116811461017a57600080fd5b9392505050565b6103d7806101906000396000f3fe608060405234801561001057600080fd5b506004361061007d5760003560e01c80638da5cb5b1161005b5780638da5cb5b146100f4578063b37f96e414610105578063ebf0c71714610118578063f2fde38b1461012f57600080fd5b8063150b7a02146100825780634fc8479a146100bf578063715018a6146100ea575b600080fd5b6100a16100903660046102e4565b630a85bd0160e11b95945050505050565b6040516001600160e01b031990911681526020015b60405180910390f35b6001546100d2906001600160a01b031681565b6040516001600160a01b0390911681526020016100b6565b6100f2610142565b005b6000546001600160a01b03166100d2565b6002546100d2906001600160a01b031681565b61012160035481565b6040519081526020016100b6565b6100f261013d36600461037f565b6101ad565b6000546001600160a01b031633146101a15760405162461bcd60e51b815260206004820181905260248201527f4f776e61626c653a2063616c6c6572206973206e6f7420746865206f776e657260448201526064015b60405180910390fd5b6101ab6000610278565b565b6000546001600160a01b031633146102075760405162461bcd60e51b815260206004820181905260248201527f4f776e61626c653a2063616c6c6572206973206e6f7420746865206f776e65726044820152606401610198565b6001600160a01b03811661026c5760405162461bcd60e51b815260206004820152602660248201527f4f776e61626c653a206e6577206f776e657220697320746865207a65726f206160448201526564647265737360d01b6064820152608401610198565b61027581610278565b50565b600080546001600160a01b038381166001600160a01b0319831681178455604051919092169283917f8be0079c531659141344cd1fd0a4f28419497f9722a3daafe3b4186f6b6457e09190a35050565b80356001600160a01b03811681146102df57600080fd5b919050565b6000806000806000608086880312156102fc57600080fd5b610305866102c8565b9450610313602087016102c8565b935060408601359250606086013567ffffffffffffffff8082111561033757600080fd5b818801915088601f83011261034b57600080fd5b81358181111561035a57600080fd5b89602082850101111561036c57600080fd5b9699959850939650602001949392505050565b60006020828403121561039157600080fd5b61039a826102c8565b939250505056fea264697066735822122007d33a466ad66a001e8f1578a86e73e9b70bcf789aa09ea0e57ce502795cbb9364736f6c634300080d0033",
					"opcodes": "PUSH32 0x255CB0514F90311A9F0E5DE5CDA68AA703990D05A93DE1BC888D351EB52A99F3 PUSH1 0x3 SSTORE PUSH1 0xC0 PUSH1 0x40 MSTORE PUSH1 0x14 PUSH1 0x80 SWAP1 DUP2 MSTORE PUSH1 0x1E PUSH1 0xA0 MSTORE PUSH2 0x42 SWAP1 PUSH1 0x4 SWAP1 PUSH1 0x2 PUSH2 0xEC JUMP JUMPDEST POP CALLVALUE DUP1 ISZERO PUSH2 0x4F JUMPI PUSH1 0x0 DUP1 REVERT JUMPDEST POP PUSH1 0x40 MLOAD PUSH2 0x567 CODESIZE SUB DUP1 PUSH2 0x567 DUP4 CODECOPY DUP2 ADD PUSH1 0x40 DUP2 SWAP1 MSTORE PUSH2 0x6E SWAP2 PUSH2 0x151 JUMP JUMPDEST PUSH2 0x77 CALLER PUSH2 0x9C JUMP JUMPDEST PUSH1 0x1 DUP1 SLOAD PUSH1 0x1 PUSH1 0x1 PUSH1 0xA0 SHL SUB NOT AND PUSH1 0x1 PUSH1 0x1 PUSH1 0xA0 SHL SUB SWAP3 SWAP1 SWAP3 AND SWAP2 SWAP1 SWAP2 OR SWAP1 SSTORE PUSH2 0x181 JUMP JUMPDEST PUSH1 0x0 DUP1 SLOAD PUSH1 0x1 PUSH1 0x1 PUSH1 0xA0 SHL SUB DUP4 DUP2 AND PUSH1 0x1 PUSH1 0x1 PUSH1 0xA0 SHL SUB NOT DUP4 AND DUP2 OR DUP5 SSTORE PUSH1 0x40 MLOAD SWAP2 SWAP1 SWAP3 AND SWAP3 DUP4 SWAP2 PUSH32 0x8BE0079C531659141344CD1FD0A4F28419497F9722A3DAAFE3B4186F6B6457E0 SWAP2 SWAP1 LOG3 POP POP JUMP JUMPDEST DUP3 DUP1 SLOAD DUP3 DUP3 SSTORE SWAP1 PUSH1 0x0 MSTORE PUSH1 0x20 PUSH1 0x0 KECCAK256 SWAP1 DUP2 ADD SWAP3 DUP3 ISZERO PUSH2 0x12C JUMPI SWAP2 PUSH1 0x20 MUL DUP3 ADD JUMPDEST DUP3 DUP2 GT ISZERO PUSH2 0x12C JUMPI DUP3 MLOAD DUP3 SWAP1 PUSH1 0xFF AND SWAP1 SSTORE SWAP2 PUSH1 0x20 ADD SWAP2 SWAP1 PUSH1 0x1 ADD SWAP1 PUSH2 0x10C JUMP JUMPDEST POP PUSH2 0x138 SWAP3 SWAP2 POP PUSH2 0x13C JUMP JUMPDEST POP SWAP1 JUMP JUMPDEST JUMPDEST DUP1 DUP3 GT ISZERO PUSH2 0x138 JUMPI PUSH1 0x0 DUP2 SSTORE PUSH1 0x1 ADD PUSH2 0x13D JUMP JUMPDEST PUSH1 0x0 PUSH1 0x20 DUP3 DUP5 SUB SLT ISZERO PUSH2 0x163 JUMPI PUSH1 0x0 DUP1 REVERT JUMPDEST DUP2 MLOAD PUSH1 0x1 PUSH1 0x1 PUSH1 0xA0 SHL SUB DUP2 AND DUP2 EQ PUSH2 0x17A JUMPI PUSH1 0x0 DUP1 REVERT JUMPDEST SWAP4 SWAP3 POP POP POP JUMP JUMPDEST PUSH2 0x3D7 DUP1 PUSH2 0x190 PUSH1 0x0 CODECOPY PUSH1 0x0 RETURN INVALID PUSH1 0x80 PUSH1 0x40 MSTORE CALLVALUE DUP1 ISZERO PUSH2 0x10 JUMPI PUSH1 0x0 DUP1 REVERT JUMPDEST POP PUSH1 0x4 CALLDATASIZE LT PUSH2 0x7D JUMPI PUSH1 0x0 CALLDATALOAD PUSH1 0xE0 SHR DUP1 PUSH4 0x8DA5CB5B GT PUSH2 0x5B JUMPI DUP1 PUSH4 0x8DA5CB5B EQ PUSH2 0xF4 JUMPI DUP1 PUSH4 0xB37F96E4 EQ PUSH2 0x105 JUMPI DUP1 PUSH4 0xEBF0C717 EQ PUSH2 0x118 JUMPI DUP1 PUSH4 0xF2FDE38B EQ PUSH2 0x12F JUMPI PUSH1 0x0 DUP1 REVERT JUMPDEST DUP1 PUSH4 0x150B7A02 EQ PUSH2 0x82 JUMPI DUP1 PUSH4 0x4FC8479A EQ PUSH2 0xBF JUMPI DUP1 PUSH4 0x715018A6 EQ PUSH2 0xEA JUMPI JUMPDEST PUSH1 0x0 DUP1 REVERT JUMPDEST PUSH2 0xA1 PUSH2 0x90 CALLDATASIZE PUSH1 0x4 PUSH2 0x2E4 JUMP JUMPDEST PUSH4 0xA85BD01 PUSH1 0xE1 SHL SWAP6 SWAP5 POP POP POP POP POP JUMP JUMPDEST PUSH1 0x40 MLOAD PUSH1 0x1 PUSH1 0x1 PUSH1 0xE0 SHL SUB NOT SWAP1 SWAP2 AND DUP2 MSTORE PUSH1 0x20 ADD JUMPDEST PUSH1 0x40 MLOAD DUP1 SWAP2 SUB SWAP1 RETURN JUMPDEST PUSH1 0x1 SLOAD PUSH2 0xD2 SWAP1 PUSH1 0x1 PUSH1 0x1 PUSH1 0xA0 SHL SUB AND DUP2 JUMP JUMPDEST PUSH1 0x40 MLOAD PUSH1 0x1 PUSH1 0x1 PUSH1 0xA0 SHL SUB SWAP1 SWAP2 AND DUP2 MSTORE PUSH1 0x20 ADD PUSH2 0xB6 JUMP JUMPDEST PUSH2 0xF2 PUSH2 0x142 JUMP JUMPDEST STOP JUMPDEST PUSH1 0x0 SLOAD PUSH1 0x1 PUSH1 0x1 PUSH1 0xA0 SHL SUB AND PUSH2 0xD2 JUMP JUMPDEST PUSH1 0x2 SLOAD PUSH2 0xD2 SWAP1 PUSH1 0x1 PUSH1 0x1 PUSH1 0xA0 SHL SUB AND DUP2 JUMP JUMPDEST PUSH2 0x121 PUSH1 0x3 SLOAD DUP2 JUMP JUMPDEST PUSH1 0x40 MLOAD SWAP1 DUP2 MSTORE PUSH1 0x20 ADD PUSH2 0xB6 JUMP JUMPDEST PUSH2 0xF2 PUSH2 0x13D CALLDATASIZE PUSH1 0x4 PUSH2 0x37F JUMP JUMPDEST PUSH2 0x1AD JUMP JUMPDEST PUSH1 0x0 SLOAD PUSH1 0x1 PUSH1 0x1 PUSH1 0xA0 SHL SUB AND CALLER EQ PUSH2 0x1A1 JUMPI PUSH1 0x40 MLOAD PUSH3 0x461BCD PUSH1 0xE5 SHL DUP2 MSTORE PUSH1 0x20 PUSH1 0x4 DUP3 ADD DUP2 SWAP1 MSTORE PUSH1 0x24 DUP3 ADD MSTORE PUSH32 0x4F776E61626C653A2063616C6C6572206973206E6F7420746865206F776E6572 PUSH1 0x44 DUP3 ADD MSTORE PUSH1 0x64 ADD JUMPDEST PUSH1 0x40 MLOAD DUP1 SWAP2 SUB SWAP1 REVERT JUMPDEST PUSH2 0x1AB PUSH1 0x0 PUSH2 0x278 JUMP JUMPDEST JUMP JUMPDEST PUSH1 0x0 SLOAD PUSH1 0x1 PUSH1 0x1 PUSH1 0xA0 SHL SUB AND CALLER EQ PUSH2 0x207 JUMPI PUSH1 0x40 MLOAD PUSH3 0x461BCD PUSH1 0xE5 SHL DUP2 MSTORE PUSH1 0x20 PUSH1 0x4 DUP3 ADD DUP2 SWAP1 MSTORE PUSH1 0x24 DUP3 ADD MSTORE PUSH32 0x4F776E61626C653A2063616C6C6572206973206E6F7420746865206F776E6572 PUSH1 0x44 DUP3 ADD MSTORE PUSH1 0x64 ADD PUSH2 0x198 JUMP JUMPDEST PUSH1 0x1 PUSH1 0x1 PUSH1 0xA0 SHL SUB DUP2 AND PUSH2 0x26C JUMPI PUSH1 0x40 MLOAD PUSH3 0x461BCD PUSH1 0xE5 SHL DUP2 MSTORE PUSH1 0x20 PUSH1 0x4 DUP3 ADD MSTORE PUSH1 0x26 PUSH1 0x24 DUP3 ADD MSTORE PUSH32 0x4F776E61626C653A206E6577206F776E657220697320746865207A65726F2061 PUSH1 0x44 DUP3 ADD MSTORE PUSH6 0x646472657373 PUSH1 0xD0 SHL PUSH1 0x64 DUP3 ADD MSTORE PUSH1 0x84 ADD PUSH2 0x198 JUMP JUMPDEST PUSH2 0x275 DUP2 PUSH2 0x278 JUMP JUMPDEST POP JUMP JUMPDEST PUSH1 0x0 DUP1 SLOAD PUSH1 0x1 PUSH1 0x1 PUSH1 0xA0 SHL SUB DUP4 DUP2 AND PUSH1 0x1 PUSH1 0x1 PUSH1 0xA0 SHL SUB NOT DUP4 AND DUP2 OR DUP5 SSTORE PUSH1 0x40 MLOAD SWAP2 SWAP1 SWAP3 AND SWAP3 DUP4 SWAP2 PUSH32 0x8BE0079C531659141344CD1FD0A4F28419497F9722A3DAAFE3B4186F6B6457E0 SWAP2 SWAP1 LOG3 POP POP JUMP JUMPDEST DUP1 CALLDATALOAD PUSH1 0x1 PUSH1 0x1 PUSH1 0xA0 SHL SUB DUP2 AND DUP2 EQ PUSH2 0x2DF JUMPI PUSH1 0x0 DUP1 REVERT JUMPDEST SWAP2 SWAP1 POP JUMP JUMPDEST PUSH1 0x0 DUP1 PUSH1 0x0 DUP1 PUSH1 0x0 PUSH1 0x80 DUP7 DUP9 SUB SLT ISZERO PUSH2 0x2FC JUMPI PUSH1 0x0 DUP1 REVERT JUMPDEST PUSH2 0x305 DUP7 PUSH2 0x2C8 JUMP JUMPDEST SWAP5 POP PUSH2 0x313 PUSH1 0x20 DUP8 ADD PUSH2 0x2C8 JUMP JUMPDEST SWAP4 POP PUSH1 0x40 DUP7 ADD CALLDATALOAD SWAP3 POP PUSH1 0x60 DUP7 ADD CALLDATALOAD PUSH8 0xFFFFFFFFFFFFFFFF DUP1 DUP3 GT ISZERO PUSH2 0x337 JUMPI PUSH1 0x0 DUP1 REVERT JUMPDEST DUP2 DUP9 ADD SWAP2 POP DUP9 PUSH1 0x1F DUP4 ADD SLT PUSH2 0x34B JUMPI PUSH1 0x0 DUP1 REVERT JUMPDEST DUP2 CALLDATALOAD DUP2 DUP2 GT ISZERO PUSH2 0x35A JUMPI PUSH1 0x0 DUP1 REVERT JUMPDEST DUP10 PUSH1 0x20 DUP3 DUP6 ADD ADD GT ISZERO PUSH2 0x36C JUMPI PUSH1 0x0 DUP1 REVERT JUMPDEST SWAP7 SWAP10 SWAP6 SWAP9 POP SWAP4 SWAP7 POP PUSH1 0x20 ADD SWAP5 SWAP4 SWAP3 POP POP POP JUMP JUMPDEST PUSH1 0x0 PUSH1 0x20 DUP3 DUP5 SUB SLT ISZERO PUSH2 0x391 JUMPI PUSH1 0x0 DUP1 REVERT JUMPDEST PUSH2 0x39A DUP3 PUSH2 0x2C8 JUMP JUMPDEST SWAP4 SWAP3 POP POP POP JUMP INVALID LOG2 PUSH5 0x6970667358 0x22 SLT KECCAK256 SMOD 0xD3 GASPRICE CHAINID PUSH11 0xD66A001E8F1578A86E73E9 0xB7 SIGNEXTEND 0xCF PUSH25 0x9AA09EA0E57CE502795CBB9364736F6C634300080D00330000 "
				},
				"gasEstimates": {
					"creation": {
						"codeDepositCost": "196600",
						"executionCost": "infinite",
						"totalCost": "infinite"
					},
					"external": {
						"froggyAddress()": "2360",
						"onERC721Received(address,address,uint256,bytes)": "infinite",
						"owner()": "2331",
						"renounceOwnership()": "28159",
						"ribbitAddress()": "2359",
						"root()": "2339",
						"transferOwnership(address)": "28375"
					},
					"internal": {
						"isValid(bytes32[] memory,string memory)": "infinite"
					}
				},
				"methodIdentifiers": {
					"froggyAddress()": "4fc8479a",
					"onERC721Received(address,address,uint256,bytes)": "150b7a02",
					"owner()": "8da5cb5b",
					"renounceOwnership()": "715018a6",
					"ribbitAddress()": "b37f96e4",
					"root()": "ebf0c717",
					"transferOwnership(address)": "f2fde38b"
				}
			},
			"userdoc": {
				"kind": "user",
				"methods": {},
				"version": 1
			}
		}
	}
}