{
	"nftstaking.sol": {
		"StakeFroggies": {
			"abi": [
				{
					"inputs": [
						{
							"internalType": "address",
							"name": "_froggyAddress",
							"type": "address"
						}
					],
					"stateMutability": "nonpayable",
					"type": "constructor"
				},
				{
					"anonymous": false,
					"inputs": [
						{
							"indexed": true,
							"internalType": "address",
							"name": "previousOwner",
							"type": "address"
						},
						{
							"indexed": true,
							"internalType": "address",
							"name": "newOwner",
							"type": "address"
						}
					],
					"name": "OwnershipTransferred",
					"type": "event"
				},
				{
					"inputs": [],
					"name": "froggyAddress",
					"outputs": [
						{
							"internalType": "address",
							"name": "",
							"type": "address"
						}
					],
					"stateMutability": "view",
					"type": "function"
				},
				{
					"inputs": [
						{
							"internalType": "address",
							"name": "",
							"type": "address"
						},
						{
							"internalType": "address",
							"name": "",
							"type": "address"
						},
						{
							"internalType": "uint256",
							"name": "",
							"type": "uint256"
						},
						{
							"internalType": "bytes",
							"name": "",
							"type": "bytes"
						}
					],
					"name": "onERC721Received",
					"outputs": [
						{
							"internalType": "bytes4",
							"name": "",
							"type": "bytes4"
						}
					],
					"stateMutability": "pure",
					"type": "function"
				},
				{
					"inputs": [],
					"name": "owner",
					"outputs": [
						{
							"internalType": "address",
							"name": "",
							"type": "address"
						}
					],
					"stateMutability": "view",
					"type": "function"
				},
				{
					"inputs": [],
					"name": "renounceOwnership",
					"outputs": [],
					"stateMutability": "nonpayable",
					"type": "function"
				},
				{
					"inputs": [],
					"name": "ribbitAddress",
					"outputs": [
						{
							"internalType": "address",
							"name": "",
							"type": "address"
						}
					],
					"stateMutability": "view",
					"type": "function"
				},
				{
					"inputs": [],
					"name": "root",
					"outputs": [
						{
							"internalType": "bytes32",
							"name": "",
							"type": "bytes32"
						}
					],
					"stateMutability": "view",
					"type": "function"
				},
				{
					"inputs": [
						{
							"internalType": "uint256[]",
							"name": "setti",
							"type": "uint256[]"
						}
					],
					"name": "setrewardtier",
					"outputs": [],
					"stateMutability": "nonpayable",
					"type": "function"
				},
				{
					"inputs": [
						{
							"internalType": "address",
							"name": "newOwner",
							"type": "address"
						}
					],
					"name": "transferOwnership",
					"outputs": [],
					"stateMutability": "nonpayable",
					"type": "function"
				}
			],
			"devdoc": {
				"kind": "dev",
				"methods": {
					"owner()": {
						"details": "Returns the address of the current owner."
					},
					"renounceOwnership()": {
						"details": "Leaves the contract without owner. It will not be possible to call `onlyOwner` functions anymore. Can only be called by the current owner. NOTE: Renouncing ownership will leave the contract without an owner, thereby removing any functionality that is only available to the owner."
					},
					"transferOwnership(address)": {
						"details": "Transfers ownership of the contract to a new account (`newOwner`). Can only be called by the current owner."
					}
				},
				"version": 1
			},
			"evm": {
				"assembly": "    /* \"nftstaking.sol\":427:493  0x255cb0514f90311a9f0e5de5cda68aa703990d05a93de1bc888d351eb52a99f3 */\n  0x255cb0514f90311a9f0e5de5cda68aa703990d05a93de1bc888d351eb52a99f3\n    /* \"nftstaking.sol\":407:493  bytes32 public root=0x255cb0514f90311a9f0e5de5cda68aa703990d05a93de1bc888d351eb52a99f3 */\n  0x03\n  sstore\n    /* \"nftstaking.sol\":500:535  uint[] rewardtier=[20,30,40,75,150] */\n  0x0120\n    /* \"nftstaking.sol\":277:1156  contract StakeFroggies is IERC721Receiver, Ownable {... */\n  0x40\n    /* \"nftstaking.sol\":500:535  uint[] rewardtier=[20,30,40,75,150] */\n  mstore\n    /* \"nftstaking.sol\":519:521  20 */\n  0x14\n    /* \"nftstaking.sol\":277:1156  contract StakeFroggies is IERC721Receiver, Ownable {... */\n  0x80\n    /* \"nftstaking.sol\":500:535  uint[] rewardtier=[20,30,40,75,150] */\n  swap1\n  dup2\n  mstore\n    /* \"nftstaking.sol\":522:524  30 */\n  0x1e\n    /* \"nftstaking.sol\":500:535  uint[] rewardtier=[20,30,40,75,150] */\n  0xa0\n  mstore\n    /* \"nftstaking.sol\":525:527  40 */\n  0x28\n    /* \"nftstaking.sol\":500:535  uint[] rewardtier=[20,30,40,75,150] */\n  0xc0\n  mstore\n    /* \"nftstaking.sol\":528:530  75 */\n  0x4b\n    /* \"nftstaking.sol\":500:535  uint[] rewardtier=[20,30,40,75,150] */\n  0xe0\n  mstore\n    /* \"nftstaking.sol\":531:534  150 */\n  0x96\n    /* \"nftstaking.sol\":500:535  uint[] rewardtier=[20,30,40,75,150] */\n  0x0100\n  mstore\n  tag_1\n  swap1\n  0x04\n  swap1\n  0x05\n  tag_2\n  jump\t// in\ntag_1:\n  pop\n    /* \"nftstaking.sol\":549:634  constructor(address _froggyAddress) {... */\n  callvalue\n  dup1\n  iszero\n  tag_3\n  jumpi\n  0x00\n  dup1\n  revert\ntag_3:\n  pop\n  mload(0x40)\n  sub(codesize, bytecodeSize)\n  dup1\n  bytecodeSize\n  dup4\n  codecopy\n  dup2\n  add\n  0x40\n  dup2\n  swap1\n  mstore\n  tag_4\n  swap2\n  tag_5\n  jump\t// in\ntag_4:\n    /* \"@openzeppelin/contracts/access/Ownable.sol\":921:953  _transferOwnership(_msgSender()) */\n  tag_9\n    /* \"@openzeppelin/contracts/utils/Context.sol\":719:729  msg.sender */\n  caller\n    /* \"@openzeppelin/contracts/access/Ownable.sol\":921:939  _transferOwnership */\n  tag_12\n    /* \"@openzeppelin/contracts/access/Ownable.sol\":921:953  _transferOwnership(_msgSender()) */\n  jump\t// in\ntag_9:\n    /* \"nftstaking.sol\":596:609  froggyAddress */\n  0x01\n    /* \"nftstaking.sol\":596:626  froggyAddress = _froggyAddress */\n  dup1\n  sload\n  not(sub(shl(0xa0, 0x01), 0x01))\n  and\n  sub(shl(0xa0, 0x01), 0x01)\n  swap3\n  swap1\n  swap3\n  and\n  swap2\n  swap1\n  swap2\n  or\n  swap1\n  sstore\n    /* \"nftstaking.sol\":277:1156  contract StakeFroggies is IERC721Receiver, Ownable {... */\n  jump(tag_24)\n    /* \"@openzeppelin/contracts/access/Ownable.sol\":2270:2457  function _transferOwnership(address newOwner) internal virtual {... */\ntag_12:\n    /* \"@openzeppelin/contracts/access/Ownable.sol\":2343:2359  address oldOwner */\n  0x00\n    /* \"@openzeppelin/contracts/access/Ownable.sol\":2362:2368  _owner */\n  dup1\n  sload\n  sub(shl(0xa0, 0x01), 0x01)\n    /* \"@openzeppelin/contracts/access/Ownable.sol\":2378:2395  _owner = newOwner */\n  dup4\n  dup2\n  and\n  not(sub(shl(0xa0, 0x01), 0x01))\n  dup4\n  and\n  dup2\n  or\n  dup5\n  sstore\n    /* \"@openzeppelin/contracts/access/Ownable.sol\":2410:2450  OwnershipTransferred(oldOwner, newOwner) */\n  mload(0x40)\n    /* \"@openzeppelin/contracts/access/Ownable.sol\":2362:2368  _owner */\n  swap2\n  swap1\n  swap3\n  and\n  swap3\n  dup4\n  swap2\n    /* \"@openzeppelin/contracts/access/Ownable.sol\":2410:2450  OwnershipTransferred(oldOwner, newOwner) */\n  0x8be0079c531659141344cd1fd0a4f28419497f9722a3daafe3b4186f6b6457e0\n  swap2\n    /* \"@openzeppelin/contracts/access/Ownable.sol\":2343:2359  address oldOwner */\n  swap1\n    /* \"@openzeppelin/contracts/access/Ownable.sol\":2410:2450  OwnershipTransferred(oldOwner, newOwner) */\n  log3\n    /* \"@openzeppelin/contracts/access/Ownable.sol\":2333:2457  {... */\n  pop\n    /* \"@openzeppelin/contracts/access/Ownable.sol\":2270:2457  function _transferOwnership(address newOwner) internal virtual {... */\n  pop\n  jump\t// out\n    /* \"nftstaking.sol\":277:1156  contract StakeFroggies is IERC721Receiver, Ownable {... */\ntag_2:\n  dup3\n  dup1\n  sload\n  dup3\n  dup3\n  sstore\n  swap1\n  0x00\n  mstore\n  keccak256(0x00, 0x20)\n  swap1\n  dup2\n  add\n  swap3\n  dup3\n  iszero\n  tag_19\n  jumpi\n  swap2\n  0x20\n  mul\n  dup3\n  add\ntag_18:\n  dup3\n  dup2\n  gt\n  iszero\n  tag_19\n  jumpi\n  dup3\n  mload\n  dup3\n  swap1\n  0xff\n  and\n  swap1\n  sstore\n  swap2\n  0x20\n  add\n  swap2\n  swap1\n  0x01\n  add\n  swap1\n  jump(tag_18)\ntag_19:\n  pop\n  tag_20\n  swap3\n  swap2\n  pop\n  tag_21\n  jump\t// in\ntag_20:\n  pop\n  swap1\n  jump\t// out\ntag_21:\ntag_22:\n  dup1\n  dup3\n  gt\n  iszero\n  tag_20\n  jumpi\n  0x00\n  dup2\n  sstore\n  0x01\n  add\n  jump(tag_22)\n    /* \"#utility.yul\":14:304   */\ntag_5:\n    /* \"#utility.yul\":84:90   */\n  0x00\n    /* \"#utility.yul\":137:139   */\n  0x20\n    /* \"#utility.yul\":125:134   */\n  dup3\n    /* \"#utility.yul\":116:123   */\n  dup5\n    /* \"#utility.yul\":112:135   */\n  sub\n    /* \"#utility.yul\":108:140   */\n  slt\n    /* \"#utility.yul\":105:157   */\n  iszero\n  tag_26\n  jumpi\n    /* \"#utility.yul\":153:154   */\n  0x00\n    /* \"#utility.yul\":150:151   */\n  dup1\n    /* \"#utility.yul\":143:155   */\n  revert\n    /* \"#utility.yul\":105:157   */\ntag_26:\n    /* \"#utility.yul\":179:195   */\n  dup2\n  mload\n  sub(shl(0xa0, 0x01), 0x01)\n    /* \"#utility.yul\":224:255   */\n  dup2\n  and\n    /* \"#utility.yul\":214:256   */\n  dup2\n  eq\n    /* \"#utility.yul\":204:274   */\n  tag_27\n  jumpi\n    /* \"#utility.yul\":270:271   */\n  0x00\n    /* \"#utility.yul\":267:268   */\n  dup1\n    /* \"#utility.yul\":260:272   */\n  revert\n    /* \"#utility.yul\":204:274   */\ntag_27:\n    /* \"#utility.yul\":293:298   */\n  swap4\n    /* \"#utility.yul\":14:304   */\n  swap3\n  pop\n  pop\n  pop\n  jump\t// out\ntag_24:\n    /* \"nftstaking.sol\":277:1156  contract StakeFroggies is IERC721Receiver, Ownable {... */\n  dataSize(sub_0)\n  dup1\n  dataOffset(sub_0)\n  0x00\n  codecopy\n  0x00\n  return\nstop\n\nsub_0: assembly {\n        /* \"nftstaking.sol\":277:1156  contract StakeFroggies is IERC721Receiver, Ownable {... */\n      mstore(0x40, 0x80)\n      callvalue\n      dup1\n      iszero\n      tag_1\n      jumpi\n      0x00\n      dup1\n      revert\n    tag_1:\n      pop\n      jumpi(tag_2, lt(calldatasize, 0x04))\n      shr(0xe0, calldataload(0x00))\n      dup1\n      0xb37f96e4\n      gt\n      tag_11\n      jumpi\n      dup1\n      0xb37f96e4\n      eq\n      tag_7\n      jumpi\n      dup1\n      0xea4cf883\n      eq\n      tag_8\n      jumpi\n      dup1\n      0xebf0c717\n      eq\n      tag_9\n      jumpi\n      dup1\n      0xf2fde38b\n      eq\n      tag_10\n      jumpi\n      0x00\n      dup1\n      revert\n    tag_11:\n      dup1\n      0x150b7a02\n      eq\n      tag_3\n      jumpi\n      dup1\n      0x4fc8479a\n      eq\n      tag_4\n      jumpi\n      dup1\n      0x715018a6\n      eq\n      tag_5\n      jumpi\n      dup1\n      0x8da5cb5b\n      eq\n      tag_6\n      jumpi\n    tag_2:\n      0x00\n      dup1\n      revert\n        /* \"nftstaking.sol\":934:1153  function onERC721Received(... */\n    tag_3:\n      tag_12\n      tag_13\n      calldatasize\n      0x04\n      tag_14\n      jump\t// in\n    tag_13:\n      shl(0xe1, 0x0a85bd01)\n      swap6\n      swap5\n      pop\n      pop\n      pop\n      pop\n      pop\n      jump\n    tag_12:\n      mload(0x40)\n      not(sub(shl(0xe0, 0x01), 0x01))\n        /* \"#utility.yul\":1167:1200   */\n      swap1\n      swap2\n      and\n        /* \"#utility.yul\":1149:1201   */\n      dup2\n      mstore\n        /* \"#utility.yul\":1137:1139   */\n      0x20\n        /* \"#utility.yul\":1122:1140   */\n      add\n        /* \"nftstaking.sol\":934:1153  function onERC721Received(... */\n    tag_16:\n      mload(0x40)\n      dup1\n      swap2\n      sub\n      swap1\n      return\n        /* \"nftstaking.sol\":337:365  address public froggyAddress */\n    tag_4:\n      sload(0x01)\n      tag_18\n      swap1\n      sub(shl(0xa0, 0x01), 0x01)\n      and\n      dup2\n      jump\n    tag_18:\n      mload(0x40)\n      sub(shl(0xa0, 0x01), 0x01)\n        /* \"#utility.yul\":1376:1408   */\n      swap1\n      swap2\n      and\n        /* \"#utility.yul\":1358:1409   */\n      dup2\n      mstore\n        /* \"#utility.yul\":1346:1348   */\n      0x20\n        /* \"#utility.yul\":1331:1349   */\n      add\n        /* \"nftstaking.sol\":337:365  address public froggyAddress */\n      tag_16\n        /* \"#utility.yul\":1212:1415   */\n      jump\n        /* \"@openzeppelin/contracts/access/Ownable.sol\":1668:1769  function renounceOwnership() public virtual onlyOwner {... */\n    tag_5:\n      tag_22\n      tag_23\n      jump\t// in\n    tag_22:\n      stop\n        /* \"@openzeppelin/contracts/access/Ownable.sol\":1036:1121  function owner() public view virtual returns (address) {... */\n    tag_6:\n        /* \"@openzeppelin/contracts/access/Ownable.sol\":1082:1089  address */\n      0x00\n        /* \"@openzeppelin/contracts/access/Ownable.sol\":1108:1114  _owner */\n      sload\n      sub(shl(0xa0, 0x01), 0x01)\n      and\n        /* \"@openzeppelin/contracts/access/Ownable.sol\":1036:1121  function owner() public view virtual returns (address) {... */\n      jump(tag_18)\n        /* \"nftstaking.sol\":372:400  address public ribbitAddress */\n    tag_7:\n      sload(0x02)\n      tag_18\n      swap1\n      sub(shl(0xa0, 0x01), 0x01)\n      and\n      dup2\n      jump\n        /* \"nftstaking.sol\":855:924  function setrewardtier(uint[] memory setti )public onlyOwner{... */\n    tag_8:\n      tag_22\n      tag_31\n      calldatasize\n      0x04\n      tag_32\n      jump\t// in\n    tag_31:\n      tag_33\n      jump\t// in\n        /* \"nftstaking.sol\":407:493  bytes32 public root=0x255cb0514f90311a9f0e5de5cda68aa703990d05a93de1bc888d351eb52a99f3 */\n    tag_9:\n      tag_34\n      sload(0x03)\n      dup2\n      jump\n    tag_34:\n      mload(0x40)\n        /* \"#utility.yul\":2818:2843   */\n      swap1\n      dup2\n      mstore\n        /* \"#utility.yul\":2806:2808   */\n      0x20\n        /* \"#utility.yul\":2791:2809   */\n      add\n        /* \"nftstaking.sol\":407:493  bytes32 public root=0x255cb0514f90311a9f0e5de5cda68aa703990d05a93de1bc888d351eb52a99f3 */\n      tag_16\n        /* \"#utility.yul\":2672:2849   */\n      jump\n        /* \"@openzeppelin/contracts/access/Ownable.sol\":1918:2116  function transferOwnership(address newOwner) public virtual onlyOwner {... */\n    tag_10:\n      tag_22\n      tag_39\n      calldatasize\n      0x04\n      tag_40\n      jump\t// in\n    tag_39:\n      tag_41\n      jump\t// in\n        /* \"@openzeppelin/contracts/access/Ownable.sol\":1668:1769  function renounceOwnership() public virtual onlyOwner {... */\n    tag_23:\n        /* \"@openzeppelin/contracts/access/Ownable.sol\":1082:1089  address */\n      0x00\n        /* \"@openzeppelin/contracts/access/Ownable.sol\":1108:1114  _owner */\n      sload\n      sub(shl(0xa0, 0x01), 0x01)\n      and\n        /* \"@openzeppelin/contracts/utils/Context.sol\":719:729  msg.sender */\n      caller\n        /* \"@openzeppelin/contracts/access/Ownable.sol\":1248:1271  owner() == _msgSender() */\n      eq\n        /* \"@openzeppelin/contracts/access/Ownable.sol\":1240:1308  require(owner() == _msgSender(), \"Ownable: caller is not the owner\") */\n      tag_47\n      jumpi\n      mload(0x40)\n      shl(0xe5, 0x461bcd)\n      dup2\n      mstore\n      0x04\n      add\n      tag_48\n      swap1\n      tag_49\n      jump\t// in\n    tag_48:\n      mload(0x40)\n      dup1\n      swap2\n      sub\n      swap1\n      revert\n    tag_47:\n        /* \"@openzeppelin/contracts/access/Ownable.sol\":1732:1762  _transferOwnership(address(0)) */\n      tag_51\n        /* \"@openzeppelin/contracts/access/Ownable.sol\":1759:1760  0 */\n      0x00\n        /* \"@openzeppelin/contracts/access/Ownable.sol\":1732:1750  _transferOwnership */\n      tag_52\n        /* \"@openzeppelin/contracts/access/Ownable.sol\":1732:1762  _transferOwnership(address(0)) */\n      jump\t// in\n    tag_51:\n        /* \"@openzeppelin/contracts/access/Ownable.sol\":1668:1769  function renounceOwnership() public virtual onlyOwner {... */\n      jump\t// out\n        /* \"nftstaking.sol\":855:924  function setrewardtier(uint[] memory setti )public onlyOwner{... */\n    tag_33:\n        /* \"@openzeppelin/contracts/access/Ownable.sol\":1082:1089  address */\n      0x00\n        /* \"@openzeppelin/contracts/access/Ownable.sol\":1108:1114  _owner */\n      sload\n      sub(shl(0xa0, 0x01), 0x01)\n      and\n        /* \"@openzeppelin/contracts/utils/Context.sol\":719:729  msg.sender */\n      caller\n        /* \"@openzeppelin/contracts/access/Ownable.sol\":1248:1271  owner() == _msgSender() */\n      eq\n        /* \"@openzeppelin/contracts/access/Ownable.sol\":1240:1308  require(owner() == _msgSender(), \"Ownable: caller is not the owner\") */\n      tag_57\n      jumpi\n      mload(0x40)\n      shl(0xe5, 0x461bcd)\n      dup2\n      mstore\n      0x04\n      add\n      tag_48\n      swap1\n      tag_49\n      jump\t// in\n    tag_57:\n        /* \"nftstaking.sol\":855:924  function setrewardtier(uint[] memory setti )public onlyOwner{... */\n      pop\n      jump\t// out\n        /* \"@openzeppelin/contracts/access/Ownable.sol\":1918:2116  function transferOwnership(address newOwner) public virtual onlyOwner {... */\n    tag_41:\n        /* \"@openzeppelin/contracts/access/Ownable.sol\":1082:1089  address */\n      0x00\n        /* \"@openzeppelin/contracts/access/Ownable.sol\":1108:1114  _owner */\n      sload\n      sub(shl(0xa0, 0x01), 0x01)\n      and\n        /* \"@openzeppelin/contracts/utils/Context.sol\":719:729  msg.sender */\n      caller\n        /* \"@openzeppelin/contracts/access/Ownable.sol\":1248:1271  owner() == _msgSender() */\n      eq\n        /* \"@openzeppelin/contracts/access/Ownable.sol\":1240:1308  require(owner() == _msgSender(), \"Ownable: caller is not the owner\") */\n      tag_63\n      jumpi\n      mload(0x40)\n      shl(0xe5, 0x461bcd)\n      dup2\n      mstore\n      0x04\n      add\n      tag_48\n      swap1\n      tag_49\n      jump\t// in\n    tag_63:\n      sub(shl(0xa0, 0x01), 0x01)\n        /* \"@openzeppelin/contracts/access/Ownable.sol\":2006:2028  newOwner != address(0) */\n      dup2\n      and\n        /* \"@openzeppelin/contracts/access/Ownable.sol\":1998:2071  require(newOwner != address(0), \"Ownable: new owner is the zero address\") */\n      tag_66\n      jumpi\n      mload(0x40)\n      shl(0xe5, 0x461bcd)\n      dup2\n      mstore\n        /* \"#utility.yul\":3608:3610   */\n      0x20\n        /* \"@openzeppelin/contracts/access/Ownable.sol\":1998:2071  require(newOwner != address(0), \"Ownable: new owner is the zero address\") */\n      0x04\n      dup3\n      add\n        /* \"#utility.yul\":3590:3611   */\n      mstore\n        /* \"#utility.yul\":3647:3649   */\n      0x26\n        /* \"#utility.yul\":3627:3645   */\n      0x24\n      dup3\n      add\n        /* \"#utility.yul\":3620:3650   */\n      mstore\n        /* \"#utility.yul\":3686:3720   */\n      0x4f776e61626c653a206e6577206f776e657220697320746865207a65726f2061\n        /* \"#utility.yul\":3666:3684   */\n      0x44\n      dup3\n      add\n        /* \"#utility.yul\":3659:3721   */\n      mstore\n      shl(0xd0, 0x646472657373)\n        /* \"#utility.yul\":3737:3755   */\n      0x64\n      dup3\n      add\n        /* \"#utility.yul\":3730:3766   */\n      mstore\n        /* \"#utility.yul\":3783:3802   */\n      0x84\n      add\n        /* \"@openzeppelin/contracts/access/Ownable.sol\":1998:2071  require(newOwner != address(0), \"Ownable: new owner is the zero address\") */\n      tag_48\n        /* \"#utility.yul\":3406:3808   */\n      jump\n        /* \"@openzeppelin/contracts/access/Ownable.sol\":1998:2071  require(newOwner != address(0), \"Ownable: new owner is the zero address\") */\n    tag_66:\n        /* \"@openzeppelin/contracts/access/Ownable.sol\":2081:2109  _transferOwnership(newOwner) */\n      tag_57\n        /* \"@openzeppelin/contracts/access/Ownable.sol\":2100:2108  newOwner */\n      dup2\n        /* \"@openzeppelin/contracts/access/Ownable.sol\":2270:2457  function _transferOwnership(address newOwner) internal virtual {... */\n    tag_52:\n        /* \"@openzeppelin/contracts/access/Ownable.sol\":2343:2359  address oldOwner */\n      0x00\n        /* \"@openzeppelin/contracts/access/Ownable.sol\":2362:2368  _owner */\n      dup1\n      sload\n      sub(shl(0xa0, 0x01), 0x01)\n        /* \"@openzeppelin/contracts/access/Ownable.sol\":2378:2395  _owner = newOwner */\n      dup4\n      dup2\n      and\n      not(sub(shl(0xa0, 0x01), 0x01))\n      dup4\n      and\n      dup2\n      or\n      dup5\n      sstore\n        /* \"@openzeppelin/contracts/access/Ownable.sol\":2410:2450  OwnershipTransferred(oldOwner, newOwner) */\n      mload(0x40)\n        /* \"@openzeppelin/contracts/access/Ownable.sol\":2362:2368  _owner */\n      swap2\n      swap1\n      swap3\n      and\n      swap3\n      dup4\n      swap2\n        /* \"@openzeppelin/contracts/access/Ownable.sol\":2410:2450  OwnershipTransferred(oldOwner, newOwner) */\n      0x8be0079c531659141344cd1fd0a4f28419497f9722a3daafe3b4186f6b6457e0\n      swap2\n        /* \"@openzeppelin/contracts/access/Ownable.sol\":2343:2359  address oldOwner */\n      swap1\n        /* \"@openzeppelin/contracts/access/Ownable.sol\":2410:2450  OwnershipTransferred(oldOwner, newOwner) */\n      log3\n        /* \"@openzeppelin/contracts/access/Ownable.sol\":2333:2457  {... */\n      pop\n        /* \"@openzeppelin/contracts/access/Ownable.sol\":2270:2457  function _transferOwnership(address newOwner) internal virtual {... */\n      pop\n      jump\t// out\n        /* \"#utility.yul\":14:187   */\n    tag_72:\n        /* \"#utility.yul\":82:102   */\n      dup1\n      calldataload\n      sub(shl(0xa0, 0x01), 0x01)\n        /* \"#utility.yul\":131:162   */\n      dup2\n      and\n        /* \"#utility.yul\":121:163   */\n      dup2\n      eq\n        /* \"#utility.yul\":111:181   */\n      tag_76\n      jumpi\n        /* \"#utility.yul\":177:178   */\n      0x00\n        /* \"#utility.yul\":174:175   */\n      dup1\n        /* \"#utility.yul\":167:179   */\n      revert\n        /* \"#utility.yul\":111:181   */\n    tag_76:\n        /* \"#utility.yul\":14:187   */\n      swap2\n      swap1\n      pop\n      jump\t// out\n        /* \"#utility.yul\":192:1000   */\n    tag_14:\n        /* \"#utility.yul\":289:295   */\n      0x00\n        /* \"#utility.yul\":297:303   */\n      dup1\n        /* \"#utility.yul\":305:311   */\n      0x00\n        /* \"#utility.yul\":313:319   */\n      dup1\n        /* \"#utility.yul\":321:327   */\n      0x00\n        /* \"#utility.yul\":374:377   */\n      0x80\n        /* \"#utility.yul\":362:371   */\n      dup7\n        /* \"#utility.yul\":353:360   */\n      dup9\n        /* \"#utility.yul\":349:372   */\n      sub\n        /* \"#utility.yul\":345:378   */\n      slt\n        /* \"#utility.yul\":342:395   */\n      iszero\n      tag_78\n      jumpi\n        /* \"#utility.yul\":391:392   */\n      0x00\n        /* \"#utility.yul\":388:389   */\n      dup1\n        /* \"#utility.yul\":381:393   */\n      revert\n        /* \"#utility.yul\":342:395   */\n    tag_78:\n        /* \"#utility.yul\":414:443   */\n      tag_79\n        /* \"#utility.yul\":433:442   */\n      dup7\n        /* \"#utility.yul\":414:443   */\n      tag_72\n      jump\t// in\n    tag_79:\n        /* \"#utility.yul\":404:443   */\n      swap5\n      pop\n        /* \"#utility.yul\":462:500   */\n      tag_80\n        /* \"#utility.yul\":496:498   */\n      0x20\n        /* \"#utility.yul\":485:494   */\n      dup8\n        /* \"#utility.yul\":481:499   */\n      add\n        /* \"#utility.yul\":462:500   */\n      tag_72\n      jump\t// in\n    tag_80:\n        /* \"#utility.yul\":452:500   */\n      swap4\n      pop\n        /* \"#utility.yul\":547:549   */\n      0x40\n        /* \"#utility.yul\":536:545   */\n      dup7\n        /* \"#utility.yul\":532:550   */\n      add\n        /* \"#utility.yul\":519:551   */\n      calldataload\n        /* \"#utility.yul\":509:551   */\n      swap3\n      pop\n        /* \"#utility.yul\":602:604   */\n      0x60\n        /* \"#utility.yul\":591:600   */\n      dup7\n        /* \"#utility.yul\":587:605   */\n      add\n        /* \"#utility.yul\":574:606   */\n      calldataload\n        /* \"#utility.yul\":625:643   */\n      0xffffffffffffffff\n        /* \"#utility.yul\":666:668   */\n      dup1\n        /* \"#utility.yul\":658:664   */\n      dup3\n        /* \"#utility.yul\":655:669   */\n      gt\n        /* \"#utility.yul\":652:686   */\n      iszero\n      tag_81\n      jumpi\n        /* \"#utility.yul\":682:683   */\n      0x00\n        /* \"#utility.yul\":679:680   */\n      dup1\n        /* \"#utility.yul\":672:684   */\n      revert\n        /* \"#utility.yul\":652:686   */\n    tag_81:\n        /* \"#utility.yul\":720:726   */\n      dup2\n        /* \"#utility.yul\":709:718   */\n      dup9\n        /* \"#utility.yul\":705:727   */\n      add\n        /* \"#utility.yul\":695:727   */\n      swap2\n      pop\n        /* \"#utility.yul\":765:772   */\n      dup9\n        /* \"#utility.yul\":758:762   */\n      0x1f\n        /* \"#utility.yul\":754:756   */\n      dup4\n        /* \"#utility.yul\":750:763   */\n      add\n        /* \"#utility.yul\":746:773   */\n      slt\n        /* \"#utility.yul\":736:791   */\n      tag_82\n      jumpi\n        /* \"#utility.yul\":787:788   */\n      0x00\n        /* \"#utility.yul\":784:785   */\n      dup1\n        /* \"#utility.yul\":777:789   */\n      revert\n        /* \"#utility.yul\":736:791   */\n    tag_82:\n        /* \"#utility.yul\":827:829   */\n      dup2\n        /* \"#utility.yul\":814:830   */\n      calldataload\n        /* \"#utility.yul\":853:855   */\n      dup2\n        /* \"#utility.yul\":845:851   */\n      dup2\n        /* \"#utility.yul\":842:856   */\n      gt\n        /* \"#utility.yul\":839:873   */\n      iszero\n      tag_83\n      jumpi\n        /* \"#utility.yul\":869:870   */\n      0x00\n        /* \"#utility.yul\":866:867   */\n      dup1\n        /* \"#utility.yul\":859:871   */\n      revert\n        /* \"#utility.yul\":839:873   */\n    tag_83:\n        /* \"#utility.yul\":914:921   */\n      dup10\n        /* \"#utility.yul\":909:911   */\n      0x20\n        /* \"#utility.yul\":900:906   */\n      dup3\n        /* \"#utility.yul\":896:898   */\n      dup6\n        /* \"#utility.yul\":892:907   */\n      add\n        /* \"#utility.yul\":888:912   */\n      add\n        /* \"#utility.yul\":885:922   */\n      gt\n        /* \"#utility.yul\":882:939   */\n      iszero\n      tag_84\n      jumpi\n        /* \"#utility.yul\":935:936   */\n      0x00\n        /* \"#utility.yul\":932:933   */\n      dup1\n        /* \"#utility.yul\":925:937   */\n      revert\n        /* \"#utility.yul\":882:939   */\n    tag_84:\n        /* \"#utility.yul\":192:1000   */\n      swap7\n      swap10\n      swap6\n      swap9\n      pop\n      swap4\n      swap7\n      pop\n        /* \"#utility.yul\":966:968   */\n      0x20\n        /* \"#utility.yul\":958:969   */\n      add\n      swap5\n        /* \"#utility.yul\":988:994   */\n      swap4\n        /* \"#utility.yul\":192:1000   */\n      swap3\n      pop\n      pop\n      pop\n      jump\t// out\n        /* \"#utility.yul\":1420:1547   */\n    tag_73:\n        /* \"#utility.yul\":1481:1491   */\n      0x4e487b71\n        /* \"#utility.yul\":1476:1479   */\n      0xe0\n        /* \"#utility.yul\":1472:1492   */\n      shl\n        /* \"#utility.yul\":1469:1470   */\n      0x00\n        /* \"#utility.yul\":1462:1493   */\n      mstore\n        /* \"#utility.yul\":1512:1516   */\n      0x41\n        /* \"#utility.yul\":1509:1510   */\n      0x04\n        /* \"#utility.yul\":1502:1517   */\n      mstore\n        /* \"#utility.yul\":1536:1540   */\n      0x24\n        /* \"#utility.yul\":1533:1534   */\n      0x00\n        /* \"#utility.yul\":1526:1541   */\n      revert\n        /* \"#utility.yul\":1552:2667   */\n    tag_32:\n        /* \"#utility.yul\":1636:1642   */\n      0x00\n        /* \"#utility.yul\":1667:1669   */\n      0x20\n        /* \"#utility.yul\":1710:1712   */\n      dup1\n        /* \"#utility.yul\":1698:1707   */\n      dup4\n        /* \"#utility.yul\":1689:1696   */\n      dup6\n        /* \"#utility.yul\":1685:1708   */\n      sub\n        /* \"#utility.yul\":1681:1713   */\n      slt\n        /* \"#utility.yul\":1678:1730   */\n      iszero\n      tag_89\n      jumpi\n        /* \"#utility.yul\":1726:1727   */\n      0x00\n        /* \"#utility.yul\":1723:1724   */\n      dup1\n        /* \"#utility.yul\":1716:1728   */\n      revert\n        /* \"#utility.yul\":1678:1730   */\n    tag_89:\n        /* \"#utility.yul\":1766:1775   */\n      dup3\n        /* \"#utility.yul\":1753:1776   */\n      calldataload\n        /* \"#utility.yul\":1795:1813   */\n      0xffffffffffffffff\n        /* \"#utility.yul\":1836:1838   */\n      dup1\n        /* \"#utility.yul\":1828:1834   */\n      dup3\n        /* \"#utility.yul\":1825:1839   */\n      gt\n        /* \"#utility.yul\":1822:1856   */\n      iszero\n      tag_90\n      jumpi\n        /* \"#utility.yul\":1852:1853   */\n      0x00\n        /* \"#utility.yul\":1849:1850   */\n      dup1\n        /* \"#utility.yul\":1842:1854   */\n      revert\n        /* \"#utility.yul\":1822:1856   */\n    tag_90:\n        /* \"#utility.yul\":1890:1896   */\n      dup2\n        /* \"#utility.yul\":1879:1888   */\n      dup6\n        /* \"#utility.yul\":1875:1897   */\n      add\n        /* \"#utility.yul\":1865:1897   */\n      swap2\n      pop\n        /* \"#utility.yul\":1935:1942   */\n      dup6\n        /* \"#utility.yul\":1928:1932   */\n      0x1f\n        /* \"#utility.yul\":1924:1926   */\n      dup4\n        /* \"#utility.yul\":1920:1933   */\n      add\n        /* \"#utility.yul\":1916:1943   */\n      slt\n        /* \"#utility.yul\":1906:1961   */\n      tag_91\n      jumpi\n        /* \"#utility.yul\":1957:1958   */\n      0x00\n        /* \"#utility.yul\":1954:1955   */\n      dup1\n        /* \"#utility.yul\":1947:1959   */\n      revert\n        /* \"#utility.yul\":1906:1961   */\n    tag_91:\n        /* \"#utility.yul\":1993:1995   */\n      dup2\n        /* \"#utility.yul\":1980:1996   */\n      calldataload\n        /* \"#utility.yul\":2015:2017   */\n      dup2\n        /* \"#utility.yul\":2011:2013   */\n      dup2\n        /* \"#utility.yul\":2008:2018   */\n      gt\n        /* \"#utility.yul\":2005:2041   */\n      iszero\n      tag_93\n      jumpi\n        /* \"#utility.yul\":2021:2039   */\n      tag_93\n      tag_73\n      jump\t// in\n    tag_93:\n        /* \"#utility.yul\":2067:2069   */\n      dup1\n        /* \"#utility.yul\":2064:2065   */\n      0x05\n        /* \"#utility.yul\":2060:2070   */\n      shl\n        /* \"#utility.yul\":2099:2101   */\n      0x40\n        /* \"#utility.yul\":2093:2102   */\n      mload\n        /* \"#utility.yul\":2162:2164   */\n      0x1f\n        /* \"#utility.yul\":2158:2165   */\n      not\n        /* \"#utility.yul\":2153:2155   */\n      0x3f\n        /* \"#utility.yul\":2149:2151   */\n      dup4\n        /* \"#utility.yul\":2145:2156   */\n      add\n        /* \"#utility.yul\":2141:2166   */\n      and\n        /* \"#utility.yul\":2133:2139   */\n      dup2\n        /* \"#utility.yul\":2129:2167   */\n      add\n        /* \"#utility.yul\":2217:2223   */\n      dup2\n        /* \"#utility.yul\":2205:2215   */\n      dup2\n        /* \"#utility.yul\":2202:2224   */\n      lt\n        /* \"#utility.yul\":2197:2199   */\n      dup6\n        /* \"#utility.yul\":2185:2195   */\n      dup3\n        /* \"#utility.yul\":2182:2200   */\n      gt\n        /* \"#utility.yul\":2179:2225   */\n      or\n        /* \"#utility.yul\":2176:2248   */\n      iszero\n      tag_95\n      jumpi\n        /* \"#utility.yul\":2228:2246   */\n      tag_95\n      tag_73\n      jump\t// in\n    tag_95:\n        /* \"#utility.yul\":2264:2266   */\n      0x40\n        /* \"#utility.yul\":2257:2279   */\n      mstore\n        /* \"#utility.yul\":2314:2332   */\n      swap2\n      dup3\n      mstore\n        /* \"#utility.yul\":2348:2363   */\n      dup5\n      dup3\n      add\n      swap3\n      pop\n        /* \"#utility.yul\":2390:2401   */\n      dup4\n      dup2\n      add\n        /* \"#utility.yul\":2386:2406   */\n      dup6\n      add\n      swap2\n        /* \"#utility.yul\":2418:2437   */\n      dup9\n      dup4\n      gt\n        /* \"#utility.yul\":2415:2454   */\n      iszero\n      tag_96\n      jumpi\n        /* \"#utility.yul\":2450:2451   */\n      0x00\n        /* \"#utility.yul\":2447:2448   */\n      dup1\n        /* \"#utility.yul\":2440:2452   */\n      revert\n        /* \"#utility.yul\":2415:2454   */\n    tag_96:\n        /* \"#utility.yul\":2474:2485   */\n      swap4\n      dup6\n      add\n      swap4\n        /* \"#utility.yul\":2494:2636   */\n    tag_97:\n        /* \"#utility.yul\":2510:2516   */\n      dup3\n        /* \"#utility.yul\":2505:2508   */\n      dup6\n        /* \"#utility.yul\":2502:2517   */\n      lt\n        /* \"#utility.yul\":2494:2636   */\n      iszero\n      tag_99\n      jumpi\n        /* \"#utility.yul\":2576:2593   */\n      dup5\n      calldataload\n        /* \"#utility.yul\":2564:2594   */\n      dup5\n      mstore\n        /* \"#utility.yul\":2527:2539   */\n      swap4\n      dup6\n      add\n      swap4\n        /* \"#utility.yul\":2614:2626   */\n      swap3\n      dup6\n      add\n      swap3\n        /* \"#utility.yul\":2494:2636   */\n      jump(tag_97)\n    tag_99:\n        /* \"#utility.yul\":2655:2661   */\n      swap9\n        /* \"#utility.yul\":1552:2667   */\n      swap8\n      pop\n      pop\n      pop\n      pop\n      pop\n      pop\n      pop\n      pop\n      jump\t// out\n        /* \"#utility.yul\":2854:3040   */\n    tag_40:\n        /* \"#utility.yul\":2913:2919   */\n      0x00\n        /* \"#utility.yul\":2966:2968   */\n      0x20\n        /* \"#utility.yul\":2954:2963   */\n      dup3\n        /* \"#utility.yul\":2945:2952   */\n      dup5\n        /* \"#utility.yul\":2941:2964   */\n      sub\n        /* \"#utility.yul\":2937:2969   */\n      slt\n        /* \"#utility.yul\":2934:2986   */\n      iszero\n      tag_102\n      jumpi\n        /* \"#utility.yul\":2982:2983   */\n      0x00\n        /* \"#utility.yul\":2979:2980   */\n      dup1\n        /* \"#utility.yul\":2972:2984   */\n      revert\n        /* \"#utility.yul\":2934:2986   */\n    tag_102:\n        /* \"#utility.yul\":3005:3034   */\n      tag_103\n        /* \"#utility.yul\":3024:3033   */\n      dup3\n        /* \"#utility.yul\":3005:3034   */\n      tag_72\n      jump\t// in\n    tag_103:\n        /* \"#utility.yul\":2995:3034   */\n      swap4\n        /* \"#utility.yul\":2854:3040   */\n      swap3\n      pop\n      pop\n      pop\n      jump\t// out\n        /* \"#utility.yul\":3045:3401   */\n    tag_49:\n        /* \"#utility.yul\":3247:3249   */\n      0x20\n        /* \"#utility.yul\":3229:3250   */\n      dup1\n      dup3\n      mstore\n        /* \"#utility.yul\":3266:3284   */\n      dup2\n      dup2\n      add\n        /* \"#utility.yul\":3259:3289   */\n      mstore\n        /* \"#utility.yul\":3325:3359   */\n      0x4f776e61626c653a2063616c6c6572206973206e6f7420746865206f776e6572\n        /* \"#utility.yul\":3320:3322   */\n      0x40\n        /* \"#utility.yul\":3305:3323   */\n      dup3\n      add\n        /* \"#utility.yul\":3298:3360   */\n      mstore\n        /* \"#utility.yul\":3392:3394   */\n      0x60\n        /* \"#utility.yul\":3377:3395   */\n      add\n      swap1\n        /* \"#utility.yul\":3045:3401   */\n      jump\t// out\n\n    auxdata: 0xa2646970667358221220d2c0029daab7043c8e117c2b3aff11e62aaf0c191aede2f2680e06d9eb0a737564736f6c634300080d0033\n}\n",
				"bytecode": {
					"linkReferences": {},
					"object": "7f255cb0514f90311a9f0e5de5cda68aa703990d05a93de1bc888d351eb52a99f360035561012060405260146080908152601e60a052602860c052604b60e0526096610100526100539060049060056100fd565b5034801561006057600080fd5b5060405161066938038061066983398101604081905261007f91610162565b610088336100ad565b600180546001600160a01b0319166001600160a01b0392909216919091179055610192565b600080546001600160a01b038381166001600160a01b0319831681178455604051919092169283917f8be0079c531659141344cd1fd0a4f28419497f9722a3daafe3b4186f6b6457e09190a35050565b82805482825590600052602060002090810192821561013d579160200282015b8281111561013d578251829060ff1690559160200191906001019061011d565b5061014992915061014d565b5090565b5b80821115610149576000815560010161014e565b60006020828403121561017457600080fd5b81516001600160a01b038116811461018b57600080fd5b9392505050565b6104c8806101a16000396000f3fe608060405234801561001057600080fd5b50600436106100885760003560e01c8063b37f96e41161005b578063b37f96e414610110578063ea4cf88314610123578063ebf0c71714610136578063f2fde38b1461014d57600080fd5b8063150b7a021461008d5780634fc8479a146100ca578063715018a6146100f55780638da5cb5b146100ff575b600080fd5b6100ac61009b3660046102cc565b630a85bd0160e11b95945050505050565b6040516001600160e01b031990911681526020015b60405180910390f35b6001546100dd906001600160a01b031681565b6040516001600160a01b0390911681526020016100c1565b6100fd610160565b005b6000546001600160a01b03166100dd565b6002546100dd906001600160a01b031681565b6100fd61013136600461037d565b61019f565b61013f60035481565b6040519081526020016100c1565b6100fd61015b36600461043b565b6101cc565b6000546001600160a01b031633146101935760405162461bcd60e51b815260040161018a9061045d565b60405180910390fd5b61019d6000610260565b565b6000546001600160a01b031633146101c95760405162461bcd60e51b815260040161018a9061045d565b50565b6000546001600160a01b031633146101f65760405162461bcd60e51b815260040161018a9061045d565b6001600160a01b03811661025b5760405162461bcd60e51b815260206004820152602660248201527f4f776e61626c653a206e6577206f776e657220697320746865207a65726f206160448201526564647265737360d01b606482015260840161018a565b6101c9815b600080546001600160a01b038381166001600160a01b0319831681178455604051919092169283917f8be0079c531659141344cd1fd0a4f28419497f9722a3daafe3b4186f6b6457e09190a35050565b80356001600160a01b03811681146102c757600080fd5b919050565b6000806000806000608086880312156102e457600080fd5b6102ed866102b0565b94506102fb602087016102b0565b935060408601359250606086013567ffffffffffffffff8082111561031f57600080fd5b818801915088601f83011261033357600080fd5b81358181111561034257600080fd5b89602082850101111561035457600080fd5b9699959850939650602001949392505050565b634e487b7160e01b600052604160045260246000fd5b6000602080838503121561039057600080fd5b823567ffffffffffffffff808211156103a857600080fd5b818501915085601f8301126103bc57600080fd5b8135818111156103ce576103ce610367565b8060051b604051601f19603f830116810181811085821117156103f3576103f3610367565b60405291825284820192508381018501918883111561041157600080fd5b938501935b8285101561042f57843584529385019392850192610416565b98975050505050505050565b60006020828403121561044d57600080fd5b610456826102b0565b9392505050565b6020808252818101527f4f776e61626c653a2063616c6c6572206973206e6f7420746865206f776e657260408201526060019056fea2646970667358221220d2c0029daab7043c8e117c2b3aff11e62aaf0c191aede2f2680e06d9eb0a737564736f6c634300080d0033",
					"opcodes": "PUSH32 0x255CB0514F90311A9F0E5DE5CDA68AA703990D05A93DE1BC888D351EB52A99F3 PUSH1 0x3 SSTORE PUSH2 0x120 PUSH1 0x40 MSTORE PUSH1 0x14 PUSH1 0x80 SWAP1 DUP2 MSTORE PUSH1 0x1E PUSH1 0xA0 MSTORE PUSH1 0x28 PUSH1 0xC0 MSTORE PUSH1 0x4B PUSH1 0xE0 MSTORE PUSH1 0x96 PUSH2 0x100 MSTORE PUSH2 0x53 SWAP1 PUSH1 0x4 SWAP1 PUSH1 0x5 PUSH2 0xFD JUMP JUMPDEST POP CALLVALUE DUP1 ISZERO PUSH2 0x60 JUMPI PUSH1 0x0 DUP1 REVERT JUMPDEST POP PUSH1 0x40 MLOAD PUSH2 0x669 CODESIZE SUB DUP1 PUSH2 0x669 DUP4 CODECOPY DUP2 ADD PUSH1 0x40 DUP2 SWAP1 MSTORE PUSH2 0x7F SWAP2 PUSH2 0x162 JUMP JUMPDEST PUSH2 0x88 CALLER PUSH2 0xAD JUMP JUMPDEST PUSH1 0x1 DUP1 SLOAD PUSH1 0x1 PUSH1 0x1 PUSH1 0xA0 SHL SUB NOT AND PUSH1 0x1 PUSH1 0x1 PUSH1 0xA0 SHL SUB SWAP3 SWAP1 SWAP3 AND SWAP2 SWAP1 SWAP2 OR SWAP1 SSTORE PUSH2 0x192 JUMP JUMPDEST PUSH1 0x0 DUP1 SLOAD PUSH1 0x1 PUSH1 0x1 PUSH1 0xA0 SHL SUB DUP4 DUP2 AND PUSH1 0x1 PUSH1 0x1 PUSH1 0xA0 SHL SUB NOT DUP4 AND DUP2 OR DUP5 SSTORE PUSH1 0x40 MLOAD SWAP2 SWAP1 SWAP3 AND SWAP3 DUP4 SWAP2 PUSH32 0x8BE0079C531659141344CD1FD0A4F28419497F9722A3DAAFE3B4186F6B6457E0 SWAP2 SWAP1 LOG3 POP POP JUMP JUMPDEST DUP3 DUP1 SLOAD DUP3 DUP3 SSTORE SWAP1 PUSH1 0x0 MSTORE PUSH1 0x20 PUSH1 0x0 KECCAK256 SWAP1 DUP2 ADD SWAP3 DUP3 ISZERO PUSH2 0x13D JUMPI SWAP2 PUSH1 0x20 MUL DUP3 ADD JUMPDEST DUP3 DUP2 GT ISZERO PUSH2 0x13D JUMPI DUP3 MLOAD DUP3 SWAP1 PUSH1 0xFF AND SWAP1 SSTORE SWAP2 PUSH1 0x20 ADD SWAP2 SWAP1 PUSH1 0x1 ADD SWAP1 PUSH2 0x11D JUMP JUMPDEST POP PUSH2 0x149 SWAP3 SWAP2 POP PUSH2 0x14D JUMP JUMPDEST POP SWAP1 JUMP JUMPDEST JUMPDEST DUP1 DUP3 GT ISZERO PUSH2 0x149 JUMPI PUSH1 0x0 DUP2 SSTORE PUSH1 0x1 ADD PUSH2 0x14E JUMP JUMPDEST PUSH1 0x0 PUSH1 0x20 DUP3 DUP5 SUB SLT ISZERO PUSH2 0x174 JUMPI PUSH1 0x0 DUP1 REVERT JUMPDEST DUP2 MLOAD PUSH1 0x1 PUSH1 0x1 PUSH1 0xA0 SHL SUB DUP2 AND DUP2 EQ PUSH2 0x18B JUMPI PUSH1 0x0 DUP1 REVERT JUMPDEST SWAP4 SWAP3 POP POP POP JUMP JUMPDEST PUSH2 0x4C8 DUP1 PUSH2 0x1A1 PUSH1 0x0 CODECOPY PUSH1 0x0 RETURN INVALID PUSH1 0x80 PUSH1 0x40 MSTORE CALLVALUE DUP1 ISZERO PUSH2 0x10 JUMPI PUSH1 0x0 DUP1 REVERT JUMPDEST POP PUSH1 0x4 CALLDATASIZE LT PUSH2 0x88 JUMPI PUSH1 0x0 CALLDATALOAD PUSH1 0xE0 SHR DUP1 PUSH4 0xB37F96E4 GT PUSH2 0x5B JUMPI DUP1 PUSH4 0xB37F96E4 EQ PUSH2 0x110 JUMPI DUP1 PUSH4 0xEA4CF883 EQ PUSH2 0x123 JUMPI DUP1 PUSH4 0xEBF0C717 EQ PUSH2 0x136 JUMPI DUP1 PUSH4 0xF2FDE38B EQ PUSH2 0x14D JUMPI PUSH1 0x0 DUP1 REVERT JUMPDEST DUP1 PUSH4 0x150B7A02 EQ PUSH2 0x8D JUMPI DUP1 PUSH4 0x4FC8479A EQ PUSH2 0xCA JUMPI DUP1 PUSH4 0x715018A6 EQ PUSH2 0xF5 JUMPI DUP1 PUSH4 0x8DA5CB5B EQ PUSH2 0xFF JUMPI JUMPDEST PUSH1 0x0 DUP1 REVERT JUMPDEST PUSH2 0xAC PUSH2 0x9B CALLDATASIZE PUSH1 0x4 PUSH2 0x2CC JUMP JUMPDEST PUSH4 0xA85BD01 PUSH1 0xE1 SHL SWAP6 SWAP5 POP POP POP POP POP JUMP JUMPDEST PUSH1 0x40 MLOAD PUSH1 0x1 PUSH1 0x1 PUSH1 0xE0 SHL SUB NOT SWAP1 SWAP2 AND DUP2 MSTORE PUSH1 0x20 ADD JUMPDEST PUSH1 0x40 MLOAD DUP1 SWAP2 SUB SWAP1 RETURN JUMPDEST PUSH1 0x1 SLOAD PUSH2 0xDD SWAP1 PUSH1 0x1 PUSH1 0x1 PUSH1 0xA0 SHL SUB AND DUP2 JUMP JUMPDEST PUSH1 0x40 MLOAD PUSH1 0x1 PUSH1 0x1 PUSH1 0xA0 SHL SUB SWAP1 SWAP2 AND DUP2 MSTORE PUSH1 0x20 ADD PUSH2 0xC1 JUMP JUMPDEST PUSH2 0xFD PUSH2 0x160 JUMP JUMPDEST STOP JUMPDEST PUSH1 0x0 SLOAD PUSH1 0x1 PUSH1 0x1 PUSH1 0xA0 SHL SUB AND PUSH2 0xDD JUMP JUMPDEST PUSH1 0x2 SLOAD PUSH2 0xDD SWAP1 PUSH1 0x1 PUSH1 0x1 PUSH1 0xA0 SHL SUB AND DUP2 JUMP JUMPDEST PUSH2 0xFD PUSH2 0x131 CALLDATASIZE PUSH1 0x4 PUSH2 0x37D JUMP JUMPDEST PUSH2 0x19F JUMP JUMPDEST PUSH2 0x13F PUSH1 0x3 SLOAD DUP2 JUMP JUMPDEST PUSH1 0x40 MLOAD SWAP1 DUP2 MSTORE PUSH1 0x20 ADD PUSH2 0xC1 JUMP JUMPDEST PUSH2 0xFD PUSH2 0x15B CALLDATASIZE PUSH1 0x4 PUSH2 0x43B JUMP JUMPDEST PUSH2 0x1CC JUMP JUMPDEST PUSH1 0x0 SLOAD PUSH1 0x1 PUSH1 0x1 PUSH1 0xA0 SHL SUB AND CALLER EQ PUSH2 0x193 JUMPI PUSH1 0x40 MLOAD PUSH3 0x461BCD PUSH1 0xE5 SHL DUP2 MSTORE PUSH1 0x4 ADD PUSH2 0x18A SWAP1 PUSH2 0x45D JUMP JUMPDEST PUSH1 0x40 MLOAD DUP1 SWAP2 SUB SWAP1 REVERT JUMPDEST PUSH2 0x19D PUSH1 0x0 PUSH2 0x260 JUMP JUMPDEST JUMP JUMPDEST PUSH1 0x0 SLOAD PUSH1 0x1 PUSH1 0x1 PUSH1 0xA0 SHL SUB AND CALLER EQ PUSH2 0x1C9 JUMPI PUSH1 0x40 MLOAD PUSH3 0x461BCD PUSH1 0xE5 SHL DUP2 MSTORE PUSH1 0x4 ADD PUSH2 0x18A SWAP1 PUSH2 0x45D JUMP JUMPDEST POP JUMP JUMPDEST PUSH1 0x0 SLOAD PUSH1 0x1 PUSH1 0x1 PUSH1 0xA0 SHL SUB AND CALLER EQ PUSH2 0x1F6 JUMPI PUSH1 0x40 MLOAD PUSH3 0x461BCD PUSH1 0xE5 SHL DUP2 MSTORE PUSH1 0x4 ADD PUSH2 0x18A SWAP1 PUSH2 0x45D JUMP JUMPDEST PUSH1 0x1 PUSH1 0x1 PUSH1 0xA0 SHL SUB DUP2 AND PUSH2 0x25B JUMPI PUSH1 0x40 MLOAD PUSH3 0x461BCD PUSH1 0xE5 SHL DUP2 MSTORE PUSH1 0x20 PUSH1 0x4 DUP3 ADD MSTORE PUSH1 0x26 PUSH1 0x24 DUP3 ADD MSTORE PUSH32 0x4F776E61626C653A206E6577206F776E657220697320746865207A65726F2061 PUSH1 0x44 DUP3 ADD MSTORE PUSH6 0x646472657373 PUSH1 0xD0 SHL PUSH1 0x64 DUP3 ADD MSTORE PUSH1 0x84 ADD PUSH2 0x18A JUMP JUMPDEST PUSH2 0x1C9 DUP2 JUMPDEST PUSH1 0x0 DUP1 SLOAD PUSH1 0x1 PUSH1 0x1 PUSH1 0xA0 SHL SUB DUP4 DUP2 AND PUSH1 0x1 PUSH1 0x1 PUSH1 0xA0 SHL SUB NOT DUP4 AND DUP2 OR DUP5 SSTORE PUSH1 0x40 MLOAD SWAP2 SWAP1 SWAP3 AND SWAP3 DUP4 SWAP2 PUSH32 0x8BE0079C531659141344CD1FD0A4F28419497F9722A3DAAFE3B4186F6B6457E0 SWAP2 SWAP1 LOG3 POP POP JUMP JUMPDEST DUP1 CALLDATALOAD PUSH1 0x1 PUSH1 0x1 PUSH1 0xA0 SHL SUB DUP2 AND DUP2 EQ PUSH2 0x2C7 JUMPI PUSH1 0x0 DUP1 REVERT JUMPDEST SWAP2 SWAP1 POP JUMP JUMPDEST PUSH1 0x0 DUP1 PUSH1 0x0 DUP1 PUSH1 0x0 PUSH1 0x80 DUP7 DUP9 SUB SLT ISZERO PUSH2 0x2E4 JUMPI PUSH1 0x0 DUP1 REVERT JUMPDEST PUSH2 0x2ED DUP7 PUSH2 0x2B0 JUMP JUMPDEST SWAP5 POP PUSH2 0x2FB PUSH1 0x20 DUP8 ADD PUSH2 0x2B0 JUMP JUMPDEST SWAP4 POP PUSH1 0x40 DUP7 ADD CALLDATALOAD SWAP3 POP PUSH1 0x60 DUP7 ADD CALLDATALOAD PUSH8 0xFFFFFFFFFFFFFFFF DUP1 DUP3 GT ISZERO PUSH2 0x31F JUMPI PUSH1 0x0 DUP1 REVERT JUMPDEST DUP2 DUP9 ADD SWAP2 POP DUP9 PUSH1 0x1F DUP4 ADD SLT PUSH2 0x333 JUMPI PUSH1 0x0 DUP1 REVERT JUMPDEST DUP2 CALLDATALOAD DUP2 DUP2 GT ISZERO PUSH2 0x342 JUMPI PUSH1 0x0 DUP1 REVERT JUMPDEST DUP10 PUSH1 0x20 DUP3 DUP6 ADD ADD GT ISZERO PUSH2 0x354 JUMPI PUSH1 0x0 DUP1 REVERT JUMPDEST SWAP7 SWAP10 SWAP6 SWAP9 POP SWAP4 SWAP7 POP PUSH1 0x20 ADD SWAP5 SWAP4 SWAP3 POP POP POP JUMP JUMPDEST PUSH4 0x4E487B71 PUSH1 0xE0 SHL PUSH1 0x0 MSTORE PUSH1 0x41 PUSH1 0x4 MSTORE PUSH1 0x24 PUSH1 0x0 REVERT JUMPDEST PUSH1 0x0 PUSH1 0x20 DUP1 DUP4 DUP6 SUB SLT ISZERO PUSH2 0x390 JUMPI PUSH1 0x0 DUP1 REVERT JUMPDEST DUP3 CALLDATALOAD PUSH8 0xFFFFFFFFFFFFFFFF DUP1 DUP3 GT ISZERO PUSH2 0x3A8 JUMPI PUSH1 0x0 DUP1 REVERT JUMPDEST DUP2 DUP6 ADD SWAP2 POP DUP6 PUSH1 0x1F DUP4 ADD SLT PUSH2 0x3BC JUMPI PUSH1 0x0 DUP1 REVERT JUMPDEST DUP2 CALLDATALOAD DUP2 DUP2 GT ISZERO PUSH2 0x3CE JUMPI PUSH2 0x3CE PUSH2 0x367 JUMP JUMPDEST DUP1 PUSH1 0x5 SHL PUSH1 0x40 MLOAD PUSH1 0x1F NOT PUSH1 0x3F DUP4 ADD AND DUP2 ADD DUP2 DUP2 LT DUP6 DUP3 GT OR ISZERO PUSH2 0x3F3 JUMPI PUSH2 0x3F3 PUSH2 0x367 JUMP JUMPDEST PUSH1 0x40 MSTORE SWAP2 DUP3 MSTORE DUP5 DUP3 ADD SWAP3 POP DUP4 DUP2 ADD DUP6 ADD SWAP2 DUP9 DUP4 GT ISZERO PUSH2 0x411 JUMPI PUSH1 0x0 DUP1 REVERT JUMPDEST SWAP4 DUP6 ADD SWAP4 JUMPDEST DUP3 DUP6 LT ISZERO PUSH2 0x42F JUMPI DUP5 CALLDATALOAD DUP5 MSTORE SWAP4 DUP6 ADD SWAP4 SWAP3 DUP6 ADD SWAP3 PUSH2 0x416 JUMP JUMPDEST SWAP9 SWAP8 POP POP POP POP POP POP POP POP JUMP JUMPDEST PUSH1 0x0 PUSH1 0x20 DUP3 DUP5 SUB SLT ISZERO PUSH2 0x44D JUMPI PUSH1 0x0 DUP1 REVERT JUMPDEST PUSH2 0x456 DUP3 PUSH2 0x2B0 JUMP JUMPDEST SWAP4 SWAP3 POP POP POP JUMP JUMPDEST PUSH1 0x20 DUP1 DUP3 MSTORE DUP2 DUP2 ADD MSTORE PUSH32 0x4F776E61626C653A2063616C6C6572206973206E6F7420746865206F776E6572 PUSH1 0x40 DUP3 ADD MSTORE PUSH1 0x60 ADD SWAP1 JUMP INVALID LOG2 PUSH5 0x6970667358 0x22 SLT KECCAK256 0xD2 0xC0 MUL SWAP14 0xAA 0xB7 DIV EXTCODECOPY DUP15 GT PUSH29 0x2B3AFF11E62AAF0C191AEDE2F2680E06D9EB0A737564736F6C63430008 0xD STOP CALLER "
				},
				"gasEstimates": {
					"creation": {
						"codeDepositCost": "244800",
						"executionCost": "infinite",
						"totalCost": "infinite"
					},
					"external": {
						"froggyAddress()": "2360",
						"onERC721Received(address,address,uint256,bytes)": "infinite",
						"owner()": "2398",
						"renounceOwnership()": "28159",
						"ribbitAddress()": "2337",
						"root()": "2339",
						"setrewardtier(uint256[])": "infinite",
						"transferOwnership(address)": "28364"
					},
					"internal": {
						"isValid(bytes32[] memory,string memory)": "infinite"
					}
				},
				"methodIdentifiers": {
					"froggyAddress()": "4fc8479a",
					"onERC721Received(address,address,uint256,bytes)": "150b7a02",
					"owner()": "8da5cb5b",
					"renounceOwnership()": "715018a6",
					"ribbitAddress()": "b37f96e4",
					"root()": "ebf0c717",
					"setrewardtier(uint256[])": "ea4cf883",
					"transferOwnership(address)": "f2fde38b"
				}
			},
			"userdoc": {
				"kind": "user",
				"methods": {},
				"version": 1
			}
		}
	}
}